Archive member included because of file (symbol)

c:/program files/atollic/truestudio for stmicroelectronics stm32 lite 2.2.0/armtools/bin/../lib/gcc/arm-atollic-eabi/4.5.1/../../../../arm-atollic-eabi/lib/thumb/thumb2\libc.a(lib_a-init.o)
                              TrueSTUDIO\startup_stm32f4xx.o (__libc_init_array)

Allocating common symbols
Common symbol       size              file

CurrentPos          0x4               STM32F4-Discovery\stm32f4_discovery_audio_codec.o
AUDIO_MAL_DMA_InitStructure
                    0x3c              STM32F4-Discovery\stm32f4_discovery_audio_codec.o
WaveCounter         0x4               User\waveplayer.o
Buffer              0x6               User\waveplayer.o
NVIC_InitStructure  0x4               STM32F4-Discovery\stm32f4_discovery.o
RCC_Clocks          0x10              User\main.o
DMA_InitStructure   0x3c              STM32F4-Discovery\stm32f4_discovery_audio_codec.o

Discarded input sections

 .text          0x00000000        0x0 c:/program files/atollic/truestudio for stmicroelectronics stm32 lite 2.2.0/armtools/bin/../lib/gcc/arm-atollic-eabi/4.5.1/thumb/thumb2/crti.o
 .data          0x00000000        0x0 c:/program files/atollic/truestudio for stmicroelectronics stm32 lite 2.2.0/armtools/bin/../lib/gcc/arm-atollic-eabi/4.5.1/thumb/thumb2/crti.o
 .bss           0x00000000        0x0 c:/program files/atollic/truestudio for stmicroelectronics stm32 lite 2.2.0/armtools/bin/../lib/gcc/arm-atollic-eabi/4.5.1/thumb/thumb2/crti.o
 .data          0x00000000        0x4 c:/program files/atollic/truestudio for stmicroelectronics stm32 lite 2.2.0/armtools/bin/../lib/gcc/arm-atollic-eabi/4.5.1/thumb/thumb2/crtbegin.o
 .text          0x00000000        0x0 User\waveplayer.o
 .data          0x00000000        0x0 User\waveplayer.o
 .bss           0x00000000        0x0 User\waveplayer.o
 .text.WaveplayerCtrlVolume
                0x00000000        0xa User\waveplayer.o
 .text.EVAL_AUDIO_HalfTransfer_CallBack
                0x00000000        0x2 User\waveplayer.o
 .text.EVAL_AUDIO_Error_CallBack
                0x00000000        0x2 User\waveplayer.o
 .text.Delay    0x00000000       0x18 User\waveplayer.o
 .bss.WaveDataLength
                0x00000000        0x4 User\waveplayer.o
 .bss.XferCplt  0x00000000        0x4 User\waveplayer.o
 .text          0x00000000        0x0 User\system_stm32f4xx.o
Memory Configuration

Name             Origin             Length             Attributes
FLASH            0x08000000         0x00100000         xr
RAM              0x20000000         0x0001c000         xrw
MEMORY_B1        0x60000000         0x00000000         xr
*default*        0x00000000         0xffffffff

Linker script and memory map

LOAD c:/program files/atollic/truestudio for stmicroelectronics stm32 lite 2.2.0/armtools/bin/../lib/gcc/arm-atollic-eabi/4.5.1/thumb/thumb2/crti.o
LOAD c:/program files/atollic/truestudio for stmicroelectronics stm32 lite 2.2.0/armtools/bin/../lib/gcc/arm-atollic-eabi/4.5.1/thumb/thumb2/crtbegin.o
LOAD User\waveplayer.o
LOAD User\system_stm32f4xx.o
LOAD User\stm32f4xx_it.o
LOAD User\main.o
LOAD User\audio_sample.o
LOAD TrueSTUDIO\startup_stm32f4xx.o
LOAD STM32F4xx_StdPeriph_Driver\stm32f4xx_tim.o
LOAD STM32F4xx_StdPeriph_Driver\stm32f4xx_syscfg.o
LOAD STM32F4xx_StdPeriph_Driver\stm32f4xx_spi.o
LOAD STM32F4xx_StdPeriph_Driver\stm32f4xx_rcc.o
LOAD STM32F4xx_StdPeriph_Driver\stm32f4xx_i2c.o
LOAD STM32F4xx_StdPeriph_Driver\stm32f4xx_gpio.o
LOAD STM32F4xx_StdPeriph_Driver\stm32f4xx_flash.o
LOAD STM32F4xx_StdPeriph_Driver\stm32f4xx_exti.o
LOAD STM32F4xx_StdPeriph_Driver\stm32f4xx_dma.o
LOAD STM32F4xx_StdPeriph_Driver\stm32f4xx_dac.o
LOAD STM32F4xx_StdPeriph_Driver\stm32f4xx_adc.o
LOAD STM32F4xx_StdPeriph_Driver\misc.o
LOAD STM32F4-Discovery\stm32f4_discovery_lis302dl.o
LOAD STM32F4-Discovery\stm32f4_discovery_audio_codec.o
LOAD STM32F4-Discovery\stm32f4_discovery.o
LOAD ../../../../../Utilities/STM32F4-Discovery\libPDMFilter_GCC.a
                0x00001000                malloc_getpagesize_P = 0x1000
START GROUP
LOAD c:/program files/atollic/truestudio for stmicroelectronics stm32 lite 2.2.0/armtools/bin/../lib/gcc/arm-atollic-eabi/4.5.1/thumb/thumb2\libgcc.a
LOAD c:/program files/atollic/truestudio for stmicroelectronics stm32 lite 2.2.0/armtools/bin/../lib/gcc/arm-atollic-eabi/4.5.1/../../../../arm-atollic-eabi/lib/thumb/thumb2\libc.a
END GROUP
LOAD c:/program files/atollic/truestudio for stmicroelectronics stm32 lite 2.2.0/armtools/bin/../lib/gcc/arm-atollic-eabi/4.5.1/thumb/thumb2/crtend.o
LOAD c:/program files/atollic/truestudio for stmicroelectronics stm32 lite 2.2.0/armtools/bin/../lib/gcc/arm-atollic-eabi/4.5.1/thumb/thumb2/crtn.o
                0x2001c000                _estack = 0x2001c000
                0x00000000                _Min_Heap_Size = 0x0
                0x00000400                _Min_Stack_Size = 0x400

.isr_vector     0x08000000      0x188
                0x08000000                . = ALIGN (0x4)
 *(.isr_vector)
 .isr_vector    0x08000000      0x188 TrueSTUDIO\startup_stm32f4xx.o
                0x08000000                g_pfnVectors
                0x08000188                . = ALIGN (0x4)

.text           0x08000188    0xf6ed8
                0x08000188                . = ALIGN (0x4)
 *(.text)
 .text          0x08000188       0x30 c:/program files/atollic/truestudio for stmicroelectronics stm32 lite 2.2.0/armtools/bin/../lib/gcc/arm-atollic-eabi/4.5.1/thumb/thumb2/crtbegin.o
 *(.text*)
 .text.WavePlayerPauseResume
                0x080001b8        0x4 User\waveplayer.o
                0x080001b8                WavePlayerPauseResume
 .text.WavePlayerStop
                0x080001bc        0x6 User\waveplayer.o
                0x080001bc                WavePlayerStop
 *fill*         0x080001c2        0x2 00
 .text.WavePlayerInit
                0x080001c4      0x150 User\waveplayer.o
                0x080001c4                WavePlayerInit
 .text.LIS302DL_TIMEOUT_UserCallback
                0x08000314        0x2 User\waveplayer.o
                0x08000314                LIS302DL_TIMEOUT_UserCallback
 .text.AudioFlashPlay
                0x08000316        0xc User\waveplayer.o
                0x08000316                AudioFlashPlay
 *fill*         0x08000322        0x2 00
 .text.WavePlayBack
                0x08000324       0x64 User\waveplayer.o
                0x08000324                WavePlayBack
 .text.EVAL_AUDIO_TransferComplete_CallBack
                0x08000388       0x14 User\waveplayer.o
                0x08000388                EVAL_AUDIO_TransferComplete_CallBack
 .text.EVAL_AUDIO_GetSampleCallBack
                0x0800039c        0x4 User\waveplayer.o
                0x0800039c                EVAL_AUDIO_GetSampleCallBack
 .text.Codec_TIMEOUT_UserCallback
                0x080003a0        0x4 User\waveplayer.o
                0x080003a0                Codec_TIMEOUT_UserCallback
 .text.TimingDelay_Decrement
                0x080003a4       0x14 User\waveplayer.o
                0x080003a4                TimingDelay_Decrement
 .text.SystemInit
                0x080003b8      0x110 User\system_stm32f4xx.o
                0x080003b8                SystemInit
 .text.NMI_Handler
                0x080004c8        0x2 User\stm32f4xx_it.o
                0x080004c8                NMI_Handler
 .text.HardFault_Handler
                0x080004ca        0x2 User\stm32f4xx_it.o
                0x080004ca                HardFault_Handler
 .text.MemManage_Handler
                0x080004cc        0x2 User\stm32f4xx_it.o
                0x080004cc                MemManage_Handler
 .text.BusFault_Handler
                0x080004ce        0x2 User\stm32f4xx_it.o
                0x080004ce                BusFault_Handler
 .text.UsageFault_Handler
                0x080004d0        0x2 User\stm32f4xx_it.o
                0x080004d0                UsageFault_Handler
 .text.SVC_Handler
                0x080004d2        0x2 User\stm32f4xx_it.o
                0x080004d2                SVC_Handler
 .text.DebugMon_Handler
                0x080004d4        0x2 User\stm32f4xx_it.o
                0x080004d4                DebugMon_Handler
 .text.PendSV_Handler
                0x080004d6        0x2 User\stm32f4xx_it.o
                0x080004d6                PendSV_Handler
 .text.SysTick_Handler
                0x080004d8        0x4 User\stm32f4xx_it.o
                0x080004d8                SysTick_Handler
 .text.EXTI1_IRQHandler
                0x080004dc       0x38 User\stm32f4xx_it.o
                0x080004dc                EXTI1_IRQHandler
 .text.TIM4_IRQHandler
                0x08000514       0xe0 User\stm32f4xx_it.o
                0x08000514                TIM4_IRQHandler
 .text.main     0x080005f4      0x12c User\main.o
                0x080005f4                main
 .text.Reset_Handler
                0x08000720       0x58 TrueSTUDIO\startup_stm32f4xx.o
                0x08000720                Reset_Handler
 .text.Default_Handler
                0x08000778        0x2 TrueSTUDIO\startup_stm32f4xx.o
                0x08000778                RTC_Alarm_IRQHandler
                0x08000778                HASH_RNG_IRQHandler
                0x08000778                EXTI2_IRQHandler
                0x08000778                TIM8_CC_IRQHandler
                0x08000778                TIM1_CC_IRQHandler
                0x08000778                DMA2_Stream5_IRQHandler
                0x08000778                DMA1_Stream5_IRQHandler
                0x08000778                PVD_IRQHandler
                0x08000778                SDIO_IRQHandler
                0x08000778                TAMP_STAMP_IRQHandler
                0x08000778                CAN2_RX1_IRQHandler
                0x08000778                EXTI3_IRQHandler
                0x08000778                TIM8_TRG_COM_TIM14_IRQHandler
                0x08000778                TIM1_UP_TIM10_IRQHandler
                0x08000778                TIM8_UP_TIM13_IRQHandler
                0x08000778                I2C3_ER_IRQHandler
                0x08000778                EXTI0_IRQHandler
                0x08000778                I2C2_EV_IRQHandler
                0x08000778                DMA1_Stream2_IRQHandler
                0x08000778                CAN1_RX0_IRQHandler
                0x08000778                FPU_IRQHandler
                0x08000778                OTG_HS_WKUP_IRQHandler
                0x08000778                CAN2_SCE_IRQHandler
                0x08000778                DMA2_Stream2_IRQHandler
                0x08000778                SPI1_IRQHandler
                0x08000778                TIM6_DAC_IRQHandler
                0x08000778                TIM1_BRK_TIM9_IRQHandler
                0x08000778                DCMI_IRQHandler
                0x08000778                CAN2_RX0_IRQHandler
                0x08000778                DMA2_Stream3_IRQHandler
                0x08000778                USART6_IRQHandler
                0x08000778                USART3_IRQHandler
                0x08000778                CRYP_IRQHandler
                0x08000778                CAN1_RX1_IRQHandler
                0x08000778                UART5_IRQHandler
                0x08000778                DMA2_Stream0_IRQHandler
                0x08000778                I2C1_EV_IRQHandler
                0x08000778                DMA1_Stream6_IRQHandler
                0x08000778                DMA1_Stream1_IRQHandler
                0x08000778                UART4_IRQHandler
                0x08000778                TIM3_IRQHandler
                0x08000778                RCC_IRQHandler
                0x08000778                TIM8_BRK_TIM12_IRQHandler
                0x08000778                Default_Handler
                0x08000778                EXTI15_10_IRQHandler
                0x08000778                ADC_IRQHandler
                0x08000778                TIM7_IRQHandler
                0x08000778                CAN2_TX_IRQHandler
                0x08000778                TIM5_IRQHandler
                0x08000778                DMA2_Stream7_IRQHandler
                0x08000778                I2C3_EV_IRQHandler
                0x08000778                EXTI9_5_IRQHandler
                0x08000778                RTC_WKUP_IRQHandler
                0x08000778                ETH_WKUP_IRQHandler
                0x08000778                SPI2_IRQHandler
                0x08000778                OTG_HS_EP1_IN_IRQHandler
                0x08000778                CAN1_TX_IRQHandler
                0x08000778                EXTI4_IRQHandler
                0x08000778                FSMC_IRQHandler
                0x08000778                ETH_IRQHandler
                0x08000778                OTG_HS_EP1_OUT_IRQHandler
                0x08000778                WWDG_IRQHandler
                0x08000778                TIM2_IRQHandler
                0x08000778                OTG_FS_WKUP_IRQHandler
                0x08000778                TIM1_TRG_COM_TIM11_IRQHandler
                0x08000778                OTG_HS_IRQHandler
                0x08000778                USART2_IRQHandler
                0x08000778                I2C2_ER_IRQHandler
                0x08000778                DMA2_Stream1_IRQHandler
                0x08000778                CAN1_SCE_IRQHandler
                0x08000778                FLASH_IRQHandler
                0x08000778                DMA2_Stream4_IRQHandler
                0x08000778                USART1_IRQHandler
                0x08000778                OTG_FS_IRQHandler
                0x08000778                DMA1_Stream4_IRQHandler
                0x08000778                I2C1_ER_IRQHandler
                0x08000778                DMA2_Stream6_IRQHandler
                0x08000778                DMA1_Stream3_IRQHandler
 *fill*         0x0800077a        0x2 00
 .text.TIM_TimeBaseInit
                0x0800077c       0x8c STM32F4xx_StdPeriph_Driver\stm32f4xx_tim.o
                0x0800077c                TIM_TimeBaseInit
 .text.TIM_ARRPreloadConfig
                0x08000808       0x1a STM32F4xx_StdPeriph_Driver\stm32f4xx_tim.o
                0x08000808                TIM_ARRPreloadConfig
 .text.TIM_Cmd  0x08000822       0x1a STM32F4xx_StdPeriph_Driver\stm32f4xx_tim.o
                0x08000822                TIM_Cmd
 .text.TIM_OC1Init
                0x0800083c       0x84 STM32F4xx_StdPeriph_Driver\stm32f4xx_tim.o
                0x0800083c                TIM_OC1Init
 .text.TIM_SetCompare1
                0x080008c0        0x4 STM32F4xx_StdPeriph_Driver\stm32f4xx_tim.o
                0x080008c0                TIM_SetCompare1
 .text.TIM_OC1PreloadConfig
                0x080008c4       0x12 STM32F4xx_StdPeriph_Driver\stm32f4xx_tim.o
                0x080008c4                TIM_OC1PreloadConfig
 .text.TIM_GetCapture1
                0x080008d6        0x4 STM32F4xx_StdPeriph_Driver\stm32f4xx_tim.o
                0x080008d6                TIM_GetCapture1
 .text.TIM_ITConfig
                0x080008da       0x16 STM32F4xx_StdPeriph_Driver\stm32f4xx_tim.o
                0x080008da                TIM_ITConfig
 .text.TIM_GetITStatus
                0x080008f0       0x16 STM32F4xx_StdPeriph_Driver\stm32f4xx_tim.o
                0x080008f0                TIM_GetITStatus
 .text.TIM_ClearITPendingBit
                0x08000906        0x8 STM32F4xx_StdPeriph_Driver\stm32f4xx_tim.o
                0x08000906                TIM_ClearITPendingBit
 *fill*         0x0800090e        0x2 00
 .text.SYSCFG_EXTILineConfig
                0x08000910       0x34 STM32F4xx_StdPeriph_Driver\stm32f4xx_syscfg.o
                0x08000910                SYSCFG_EXTILineConfig
 .text.SPI_I2S_DeInit
                0x08000944       0x64 STM32F4xx_StdPeriph_Driver\stm32f4xx_spi.o
                0x08000944                SPI_I2S_DeInit
 .text.SPI_Init
                0x080009a8       0x42 STM32F4xx_StdPeriph_Driver\stm32f4xx_spi.o
                0x080009a8                SPI_Init
 *fill*         0x080009ea        0x2 00
 .text.I2S_Init
                0x080009ec       0xdc STM32F4xx_StdPeriph_Driver\stm32f4xx_spi.o
                0x080009ec                I2S_Init
 .text.SPI_Cmd  0x08000ac8       0x1a STM32F4xx_StdPeriph_Driver\stm32f4xx_spi.o
                0x08000ac8                SPI_Cmd
 .text.I2S_Cmd  0x08000ae2       0x1a STM32F4xx_StdPeriph_Driver\stm32f4xx_spi.o
                0x08000ae2                I2S_Cmd
 .text.SPI_I2S_ReceiveData
                0x08000afc        0x6 STM32F4xx_StdPeriph_Driver\stm32f4xx_spi.o
                0x08000afc                SPI_I2S_ReceiveData
 .text.SPI_I2S_SendData
                0x08000b02        0x4 STM32F4xx_StdPeriph_Driver\stm32f4xx_spi.o
                0x08000b02                SPI_I2S_SendData
 .text.SPI_I2S_DMACmd
                0x08000b06       0x16 STM32F4xx_StdPeriph_Driver\stm32f4xx_spi.o
                0x08000b06                SPI_I2S_DMACmd
 .text.SPI_I2S_ITConfig
                0x08000b1c       0x1e STM32F4xx_StdPeriph_Driver\stm32f4xx_spi.o
                0x08000b1c                SPI_I2S_ITConfig
 .text.SPI_I2S_GetFlagStatus
                0x08000b3a        0xc STM32F4xx_StdPeriph_Driver\stm32f4xx_spi.o
                0x08000b3a                SPI_I2S_GetFlagStatus
 *fill*         0x08000b46        0x2 00
 .text.RCC_GetClocksFreq
                0x08000b48       0xac STM32F4xx_StdPeriph_Driver\stm32f4xx_rcc.o
                0x08000b48                RCC_GetClocksFreq
 .text.RCC_AHB1PeriphClockCmd
                0x08000bf4       0x18 STM32F4xx_StdPeriph_Driver\stm32f4xx_rcc.o
                0x08000bf4                RCC_AHB1PeriphClockCmd
 .text.RCC_APB1PeriphClockCmd
                0x08000c0c       0x18 STM32F4xx_StdPeriph_Driver\stm32f4xx_rcc.o
                0x08000c0c                RCC_APB1PeriphClockCmd
 .text.RCC_APB2PeriphClockCmd
                0x08000c24       0x18 STM32F4xx_StdPeriph_Driver\stm32f4xx_rcc.o
                0x08000c24                RCC_APB2PeriphClockCmd
 .text.RCC_APB1PeriphResetCmd
                0x08000c3c       0x18 STM32F4xx_StdPeriph_Driver\stm32f4xx_rcc.o
                0x08000c3c                RCC_APB1PeriphResetCmd
 .text.RCC_APB2PeriphResetCmd
                0x08000c54       0x18 STM32F4xx_StdPeriph_Driver\stm32f4xx_rcc.o
                0x08000c54                RCC_APB2PeriphResetCmd
 .text.I2C_DeInit
                0x08000c6c       0x5c STM32F4xx_StdPeriph_Driver\stm32f4xx_i2c.o
                0x08000c6c                I2C_DeInit
 .text.I2C_Init
                0x08000cc8       0xd8 STM32F4xx_StdPeriph_Driver\stm32f4xx_i2c.o
                0x08000cc8                I2C_Init
 .text.I2C_Cmd  0x08000da0       0x1a STM32F4xx_StdPeriph_Driver\stm32f4xx_i2c.o
                0x08000da0                I2C_Cmd
 .text.I2C_GenerateSTART
                0x08000dba       0x1a STM32F4xx_StdPeriph_Driver\stm32f4xx_i2c.o
                0x08000dba                I2C_GenerateSTART
 .text.I2C_GenerateSTOP
                0x08000dd4       0x1a STM32F4xx_StdPeriph_Driver\stm32f4xx_i2c.o
                0x08000dd4                I2C_GenerateSTOP
 .text.I2C_Send7bitAddress
                0x08000dee       0x10 STM32F4xx_StdPeriph_Driver\stm32f4xx_i2c.o
                0x08000dee                I2C_Send7bitAddress
 .text.I2C_AcknowledgeConfig
                0x08000dfe       0x1a STM32F4xx_StdPeriph_Driver\stm32f4xx_i2c.o
                0x08000dfe                I2C_AcknowledgeConfig
 .text.I2C_SendData
                0x08000e18        0x4 STM32F4xx_StdPeriph_Driver\stm32f4xx_i2c.o
                0x08000e18                I2C_SendData
 .text.I2C_ReceiveData
                0x08000e1c        0x6 STM32F4xx_StdPeriph_Driver\stm32f4xx_i2c.o
                0x08000e1c                I2C_ReceiveData
 .text.I2C_CheckEvent
                0x08000e22       0x1a STM32F4xx_StdPeriph_Driver\stm32f4xx_i2c.o
                0x08000e22                I2C_CheckEvent
 .text.I2C_GetFlagStatus
                0x08000e3c       0x34 STM32F4xx_StdPeriph_Driver\stm32f4xx_i2c.o
                0x08000e3c                I2C_GetFlagStatus
 .text.I2C_ClearFlag
                0x08000e70        0x8 STM32F4xx_StdPeriph_Driver\stm32f4xx_i2c.o
                0x08000e70                I2C_ClearFlag
 .text.GPIO_Init
                0x08000e78       0x86 STM32F4xx_StdPeriph_Driver\stm32f4xx_gpio.o
                0x08000e78                GPIO_Init
 .text.GPIO_SetBits
                0x08000efe        0x4 STM32F4xx_StdPeriph_Driver\stm32f4xx_gpio.o
                0x08000efe                GPIO_SetBits
 .text.GPIO_ResetBits
                0x08000f02        0x4 STM32F4xx_StdPeriph_Driver\stm32f4xx_gpio.o
                0x08000f02                GPIO_ResetBits
 .text.GPIO_WriteBit
                0x08000f06        0xa STM32F4xx_StdPeriph_Driver\stm32f4xx_gpio.o
                0x08000f06                GPIO_WriteBit
 .text.GPIO_PinAFConfig
                0x08000f10       0x2e STM32F4xx_StdPeriph_Driver\stm32f4xx_gpio.o
                0x08000f10                GPIO_PinAFConfig
 *fill*         0x08000f3e        0x2 00
 .text.EXTI_Init
                0x08000f40       0x7c STM32F4xx_StdPeriph_Driver\stm32f4xx_exti.o
                0x08000f40                EXTI_Init
 .text.EXTI_GetITStatus
                0x08000fbc       0x1c STM32F4xx_StdPeriph_Driver\stm32f4xx_exti.o
                0x08000fbc                EXTI_GetITStatus
 .text.EXTI_ClearITPendingBit
                0x08000fd8        0xc STM32F4xx_StdPeriph_Driver\stm32f4xx_exti.o
                0x08000fd8                EXTI_ClearITPendingBit
 .text.DMA_DeInit
                0x08000fe4      0x118 STM32F4xx_StdPeriph_Driver\stm32f4xx_dma.o
                0x08000fe4                DMA_DeInit
 .text.DMA_Init
                0x080010fc       0x5c STM32F4xx_StdPeriph_Driver\stm32f4xx_dma.o
                0x080010fc                DMA_Init
 .text.DMA_Cmd  0x08001158       0x14 STM32F4xx_StdPeriph_Driver\stm32f4xx_dma.o
                0x08001158                DMA_Cmd
 .text.DMA_GetCmdStatus
                0x0800116c        0x8 STM32F4xx_StdPeriph_Driver\stm32f4xx_dma.o
                0x0800116c                DMA_GetCmdStatus
 .text.DMA_GetFlagStatus
                0x08001174       0x38 STM32F4xx_StdPeriph_Driver\stm32f4xx_dma.o
                0x08001174                DMA_GetFlagStatus
 .text.DMA_ClearFlag
                0x080011ac       0x30 STM32F4xx_StdPeriph_Driver\stm32f4xx_dma.o
                0x080011ac                DMA_ClearFlag
 .text.DMA_ITConfig
                0x080011dc       0x34 STM32F4xx_StdPeriph_Driver\stm32f4xx_dma.o
                0x080011dc                DMA_ITConfig
 .text.DAC_Init
                0x08001210       0x30 STM32F4xx_StdPeriph_Driver\stm32f4xx_dac.o
                0x08001210                DAC_Init
 .text.DAC_Cmd  0x08001240       0x20 STM32F4xx_StdPeriph_Driver\stm32f4xx_dac.o
                0x08001240                DAC_Cmd
 .text.DAC_SetChannel1Data
                0x08001260       0x20 STM32F4xx_StdPeriph_Driver\stm32f4xx_dac.o
                0x08001260                DAC_SetChannel1Data
 .text.NVIC_PriorityGroupConfig
                0x08001280       0x14 STM32F4xx_StdPeriph_Driver\misc.o
                0x08001280                NVIC_PriorityGroupConfig
 .text.NVIC_Init
                0x08001294       0x68 STM32F4xx_StdPeriph_Driver\misc.o
                0x08001294                NVIC_Init
 .text.LIS302DL_SendByte
                0x080012fc       0x60 STM32F4-Discovery\stm32f4_discovery_lis302dl.o
 .text.LIS302DL_Write
                0x0800135c       0x40 STM32F4-Discovery\stm32f4_discovery_lis302dl.o
                0x0800135c                LIS302DL_Write
 .text.LIS302DL_Init
                0x0800139c      0x15c STM32F4-Discovery\stm32f4_discovery_lis302dl.o
                0x0800139c                LIS302DL_Init
 .text.LIS302DL_Read
                0x080014f8       0x44 STM32F4-Discovery\stm32f4_discovery_lis302dl.o
                0x080014f8                LIS302DL_Read
 .text.LIS302DL_InterruptConfig
                0x0800153c       0x32 STM32F4-Discovery\stm32f4_discovery_lis302dl.o
                0x0800153c                LIS302DL_InterruptConfig
 .text.Delay    0x0800156e       0x16 STM32F4-Discovery\stm32f4_discovery_audio_codec.o
 .text.Audio_MAL_IRQHandler
                0x08001584       0xb4 STM32F4-Discovery\stm32f4_discovery_audio_codec.o
 .text.Codec_WriteRegister
                0x08001638      0x244 STM32F4-Discovery\stm32f4_discovery_audio_codec.o
 .text.Codec_Mute
                0x0800187c       0x18 STM32F4-Discovery\stm32f4_discovery_audio_codec.o
 .text.Codec_VolumeCtrl
                0x08001894       0x3a STM32F4-Discovery\stm32f4_discovery_audio_codec.o
 *fill*         0x080018ce        0x2 00
 .text.Codec_Reset
                0x080018d0       0x28 STM32F4-Discovery\stm32f4_discovery_audio_codec.o
 .text.EVAL_AUDIO_SetAudioInterface
                0x080018f8       0xe4 STM32F4-Discovery\stm32f4_discovery_audio_codec.o
                0x080018f8                EVAL_AUDIO_SetAudioInterface
 .text.EVAL_AUDIO_PauseResume
                0x080019dc       0x88 STM32F4-Discovery\stm32f4_discovery_audio_codec.o
                0x080019dc                EVAL_AUDIO_PauseResume
 .text.EVAL_AUDIO_Stop
                0x08001a64       0x9c STM32F4-Discovery\stm32f4_discovery_audio_codec.o
                0x08001a64                EVAL_AUDIO_Stop
 .text.DMA1_Stream7_IRQHandler
                0x08001b00        0x4 STM32F4-Discovery\stm32f4_discovery_audio_codec.o
                0x08001b00                DMA1_Stream7_IRQHandler
 .text.DMA1_Stream0_IRQHandler
                0x08001b04        0x4 STM32F4-Discovery\stm32f4_discovery_audio_codec.o
                0x08001b04                DMA1_Stream0_IRQHandler
 .text.SPI3_IRQHandler
                0x08001b08       0x3c STM32F4-Discovery\stm32f4_discovery_audio_codec.o
                0x08001b08                SPI3_IRQHandler
 .text.Audio_MAL_Play
                0x08001b44       0x5c STM32F4-Discovery\stm32f4_discovery_audio_codec.o
                0x08001b44                Audio_MAL_Play
 .text.EVAL_AUDIO_Play
                0x08001ba0       0x4c STM32F4-Discovery\stm32f4_discovery_audio_codec.o
                0x08001ba0                EVAL_AUDIO_Play
 .text.DAC_Config
                0x08001bec       0x50 STM32F4-Discovery\stm32f4_discovery_audio_codec.o
                0x08001bec                DAC_Config
 .text.EVAL_AUDIO_Init
                0x08001c3c      0x39c STM32F4-Discovery\stm32f4_discovery_audio_codec.o
                0x08001c3c                EVAL_AUDIO_Init
 .text.STM_EVAL_LEDInit
                0x08001fd8       0x48 STM32F4-Discovery\stm32f4_discovery.o
                0x08001fd8                STM_EVAL_LEDInit
 .text.STM_EVAL_LEDOn
                0x08002020       0x18 STM32F4-Discovery\stm32f4_discovery.o
                0x08002020                STM_EVAL_LEDOn
 .text.STM_EVAL_LEDOff
                0x08002038       0x18 STM32F4-Discovery\stm32f4_discovery.o
                0x08002038                STM_EVAL_LEDOff
 .text.STM_EVAL_LEDToggle
                0x08002050       0x20 STM32F4-Discovery\stm32f4_discovery.o
                0x08002050                STM_EVAL_LEDToggle
 .text.__libc_init_array
                0x08002070       0x48 c:/program files/atollic/truestudio for stmicroelectronics stm32 lite 2.2.0/armtools/bin/../lib/gcc/arm-atollic-eabi/4.5.1/../../../../arm-atollic-eabi/lib/thumb/thumb2\libc.a(lib_a-init.o)
                0x08002070                __libc_init_array
 *(.rodata)
 *(.rodata*)
 .rodata.AUDIO_SAMPLE
                0x080020b8    0xf4f76 User\audio_sample.o
                0x080020b8                AUDIO_SAMPLE
 *fill*         0x080f702e        0x2 00
 .rodata.GPIO_CLK
                0x080f7030       0x10 STM32F4-Discovery\stm32f4_discovery.o
                0x080f7030                GPIO_CLK
 .rodata.GPIO_PIN
                0x080f7040        0x8 STM32F4-Discovery\stm32f4_discovery.o
                0x080f7040                GPIO_PIN
 *(.glue_7)
 .glue_7        0x00000000        0x0 linker stubs
 *(.glue_7t)
 .glue_7t       0x00000000        0x0 linker stubs
 *(.eh_frame)
 *(.init)
 .init          0x080f7048        0x4 c:/program files/atollic/truestudio for stmicroelectronics stm32 lite 2.2.0/armtools/bin/../lib/gcc/arm-atollic-eabi/4.5.1/thumb/thumb2/crti.o
                0x080f7048                _init
 .init          0x080f704c        0x8 c:/program files/atollic/truestudio for stmicroelectronics stm32 lite 2.2.0/armtools/bin/../lib/gcc/arm-atollic-eabi/4.5.1/thumb/thumb2/crtn.o
 *(.fini)
 .fini          0x080f7054        0x4 c:/program files/atollic/truestudio for stmicroelectronics stm32 lite 2.2.0/armtools/bin/../lib/gcc/arm-atollic-eabi/4.5.1/thumb/thumb2/crti.o
                0x080f7054                _fini
 .fini          0x080f7058        0x8 c:/program files/atollic/truestudio for stmicroelectronics stm32 lite 2.2.0/armtools/bin/../lib/gcc/arm-atollic-eabi/4.5.1/thumb/thumb2/crtn.o
                0x080f7060                . = ALIGN (0x4)
                0x080f7060                _etext = .

.vfp11_veneer   0x080f7060        0x0
 .vfp11_veneer  0x00000000        0x0 linker stubs

.v4_bx          0x080f7060        0x0
 .v4_bx         0x00000000        0x0 linker stubs

.ARM.extab
 *(.ARM.extab* .gnu.linkonce.armextab.*)

.ARM            0x080f7060        0x0
                0x080f7060                __exidx_start = .
 *(.ARM.exidx*)
                0x080f7060                __exidx_end = .

.preinit_array  0x080f7060        0x0
                0x080f7060                PROVIDE (__preinit_array_start, .)
 *(.preinit_array*)
                0x080f7060                PROVIDE (__preinit_array_end, .)

.init_array     0x080f7060        0x4
                0x080f7060                PROVIDE (__init_array_start, .)
 *(SORT(.init_array.*))
 *(.init_array*)
 .init_array    0x080f7060        0x4 c:/program files/atollic/truestudio for stmicroelectronics stm32 lite 2.2.0/armtools/bin/../lib/gcc/arm-atollic-eabi/4.5.1/thumb/thumb2/crtbegin.o
                0x080f7064                PROVIDE (__init_array_end, .)

.fini_array     0x080f7064        0x4
                0x080f7064                PROVIDE (__fini_array_start, .)
 *(.fini_array*)
 .fini_array    0x080f7064        0x4 c:/program files/atollic/truestudio for stmicroelectronics stm32 lite 2.2.0/armtools/bin/../lib/gcc/arm-atollic-eabi/4.5.1/thumb/thumb2/crtbegin.o
 *(SORT(.fini_array.*))
                0x080f7068                PROVIDE (__fini_array_end, .)
                0x080f7068                _sidata = .

.data           0x20000000       0x64 load address 0x080f7068
                0x20000000                . = ALIGN (0x4)
                0x20000000                _sdata = .
 *(.data)
 *(.data*)
 .data.volume   0x20000000        0x1 User\waveplayer.o
                0x20000000                volume
 *fill*         0x20000001        0x3 00
 .data.SystemCoreClock
                0x20000004        0x4 User\system_stm32f4xx.o
                0x20000004                SystemCoreClock
 .data.PauseResumeStatus
                0x20000008        0x1 User\stm32f4xx_it.o
                0x20000008                PauseResumeStatus
 *fill*         0x20000009        0x1 00
 .data.CCR_Val  0x2000000a        0x2 User\main.o
                0x2000000a                CCR_Val
 .data.APBAHBPrescTable
                0x2000000c       0x10 STM32F4xx_StdPeriph_Driver\stm32f4xx_rcc.o
 .data.LIS302DLTimeout
                0x2000001c        0x4 STM32F4-Discovery\stm32f4_discovery_lis302dl.o
                0x2000001c                LIS302DLTimeout
 .data.AUDIO_MAL_DMA_IRQ
                0x20000020        0x4 STM32F4-Discovery\stm32f4_discovery_audio_codec.o
                0x20000020                AUDIO_MAL_DMA_IRQ
 .data.AUDIO_MAL_DMA_FLAG_FE
                0x20000024        0x4 STM32F4-Discovery\stm32f4_discovery_audio_codec.o
                0x20000024                AUDIO_MAL_DMA_FLAG_FE
 .data.AUDIO_MAL_DMA_FLAG_HT
                0x20000028        0x4 STM32F4-Discovery\stm32f4_discovery_audio_codec.o
                0x20000028                AUDIO_MAL_DMA_FLAG_HT
 .data.AUDIO_MAL_DMA_FLAG_TC
                0x2000002c        0x4 STM32F4-Discovery\stm32f4_discovery_audio_codec.o
                0x2000002c                AUDIO_MAL_DMA_FLAG_TC
 .data.AUDIO_MAL_DMA_DREG
                0x20000030        0x4 STM32F4-Discovery\stm32f4_discovery_audio_codec.o
                0x20000030                AUDIO_MAL_DMA_DREG
 .data.AUDIO_MAL_DMA_FLAG_TE
                0x20000034        0x4 STM32F4-Discovery\stm32f4_discovery_audio_codec.o
                0x20000034                AUDIO_MAL_DMA_FLAG_TE
 .data.AUDIO_MAL_DMA_CLOCK
                0x20000038        0x4 STM32F4-Discovery\stm32f4_discovery_audio_codec.o
                0x20000038                AUDIO_MAL_DMA_CLOCK
 .data.AUDIO_MAL_DMA_FLAG_DME
                0x2000003c        0x4 STM32F4-Discovery\stm32f4_discovery_audio_codec.o
                0x2000003c                AUDIO_MAL_DMA_FLAG_DME
 .data.AUDIO_MAL_DMA_STREAM
                0x20000040        0x4 STM32F4-Discovery\stm32f4_discovery_audio_codec.o
                0x20000040                AUDIO_MAL_DMA_STREAM
 .data.AudioTotalSize
                0x20000044        0x4 STM32F4-Discovery\stm32f4_discovery_audio_codec.o
                0x20000044                AudioTotalSize
 .data.CurrAudioInterface
                0x20000048        0x4 STM32F4-Discovery\stm32f4_discovery_audio_codec.o
                0x20000048                CurrAudioInterface
 .data.AudioRemSize
                0x2000004c        0x4 STM32F4-Discovery\stm32f4_discovery_audio_codec.o
                0x2000004c                AudioRemSize
 .data.CODECTimeout
                0x20000050        0x4 STM32F4-Discovery\stm32f4_discovery_audio_codec.o
                0x20000050                CODECTimeout
 .data.GPIO_PORT
                0x20000054       0x10 STM32F4-Discovery\stm32f4_discovery.o
                0x20000054                GPIO_PORT
                0x20000064                . = ALIGN (0x4)
                0x20000064                _edata = .

.jcr            0x20000064        0x0 load address 0x080f70cc
 .jcr           0x20000064        0x0 c:/program files/atollic/truestudio for stmicroelectronics stm32 lite 2.2.0/armtools/bin/../lib/gcc/arm-atollic-eabi/4.5.1/thumb/thumb2/crtbegin.o
                0x20000064                . = ALIGN (0x4)

.bss            0x20000064       0xb0 load address 0x080f70cc
                0x20000064                _sbss = .
                0x20000064                __bss_start__ = _sbss
 *(.bss)
 .bss           0x20000064        0x1 c:/program files/atollic/truestudio for stmicroelectronics stm32 lite 2.2.0/armtools/bin/../lib/gcc/arm-atollic-eabi/4.5.1/thumb/thumb2/crtbegin.o
 *(.bss*)
 *fill*         0x20000065        0x3 00
 .bss.TimingDelay
                0x20000068        0x4 User\waveplayer.o
 .bss.AudioPlayStart
                0x2000006c        0x1 User\waveplayer.o
                0x2000006c                AudioPlayStart
 .bss.Count     0x2000006d        0x1 User\stm32f4xx_it.o
                0x2000006d                Count
 .bss.capture   0x2000006e        0x2 User\stm32f4xx_it.o
                0x2000006e                capture
 .bss.LED_Toggle
                0x20000070        0x1 User\stm32f4xx_it.o
                0x20000070                LED_Toggle
 .bss.RepeatState
                0x20000071        0x1 User\main.o
                0x20000071                RepeatState
 *fill*         0x20000072        0x2 00
 .bss.AUDIO_MAL_DMA_CHANNEL
                0x20000074        0x4 STM32F4-Discovery\stm32f4_discovery_audio_codec.o
                0x20000074                AUDIO_MAL_DMA_CHANNEL
 .bss.OutputDev
                0x20000078        0x1 STM32F4-Discovery\stm32f4_discovery_audio_codec.o
                0x20000078                OutputDev
 *(COMMON)
 *fill*         0x20000079        0x3 00
 COMMON         0x2000007c        0xa User\waveplayer.o
                0x2000007c                WaveCounter
                0x20000080                Buffer
 *fill*         0x20000086        0x2 00
 COMMON         0x20000088       0x10 User\main.o
                0x20000088                RCC_Clocks
 COMMON         0x20000098       0x7c STM32F4-Discovery\stm32f4_discovery_audio_codec.o
                0x20000098                CurrentPos
                0x2000009c                AUDIO_MAL_DMA_InitStructure
                0x200000d8                DMA_InitStructure
                0x20000114                . = ALIGN (0x4)
                0x20000114                _ebss = .
                0x20000114                __bss_end__ = _ebss

._user_heap_stack
                0x20000114      0x400 load address 0x080f717c
                0x20000114                . = ALIGN (0x4)
                0x20000114                PROVIDE (end, .)
                0x20000114                PROVIDE (_end, .)
                0x20000114                . = (. + _Min_Heap_Size)
                0x20000514                . = (. + _Min_Stack_Size)
 *fill*         0x20000114      0x400 00
                0x20000514                . = ALIGN (0x4)

.memory_b1_text
 *(.mb1text)
 *(.mb1text*)
 *(.mb1rodata)
 *(.mb1rodata*)

/DISCARD/
 libc.a(*)
 libm.a(*)
 libgcc.a(*)

.ARM.attributes
                0x00000000       0x2d
 *(.ARM.attributes)
 .ARM.attributes
                0x00000000       0x19 c:/program files/atollic/truestudio for stmicroelectronics stm32 lite 2.2.0/armtools/bin/../lib/gcc/arm-atollic-eabi/4.5.1/thumb/thumb2/crti.o
 .ARM.attributes
                0x00000019       0x29 c:/program files/atollic/truestudio for stmicroelectronics stm32 lite 2.2.0/armtools/bin/../lib/gcc/arm-atollic-eabi/4.5.1/thumb/thumb2/crtbegin.o
 .ARM.attributes
                0x00000042       0x31 User\waveplayer.o
 .ARM.attributes
                0x00000073       0x31 User\system_stm32f4xx.o
 .ARM.attributes
                0x000000a4       0x31 User\stm32f4xx_it.o
 .ARM.attributes
                0x000000d5       0x31 User\main.o
 .ARM.attributes
                0x00000106       0x31 User\audio_sample.o
 .ARM.attributes
                0x00000137       0x21 TrueSTUDIO\startup_stm32f4xx.o
 .ARM.attributes
                0x00000158       0x31 STM32F4xx_StdPeriph_Driver\stm32f4xx_tim.o
 .ARM.attributes
                0x00000189       0x31 STM32F4xx_StdPeriph_Driver\stm32f4xx_syscfg.o
 .ARM.attributes
                0x000001ba       0x31 STM32F4xx_StdPeriph_Driver\stm32f4xx_spi.o
 .ARM.attributes
                0x000001eb       0x31 STM32F4xx_StdPeriph_Driver\stm32f4xx_rcc.o
 .ARM.attributes
                0x0000021c       0x31 STM32F4xx_StdPeriph_Driver\stm32f4xx_i2c.o
 .ARM.attributes
                0x0000024d       0x31 STM32F4xx_StdPeriph_Driver\stm32f4xx_gpio.o
 .ARM.attributes
                0x0000027e       0x31 STM32F4xx_StdPeriph_Driver\stm32f4xx_flash.o
 .ARM.attributes
                0x000002af       0x31 STM32F4xx_StdPeriph_Driver\stm32f4xx_exti.o
 .ARM.attributes
                0x000002e0       0x31 STM32F4xx_StdPeriph_Driver\stm32f4xx_dma.o
 .ARM.attributes
                0x00000311       0x31 STM32F4xx_StdPeriph_Driver\stm32f4xx_dac.o
 .ARM.attributes
                0x00000342       0x31 STM32F4xx_StdPeriph_Driver\stm32f4xx_adc.o
 .ARM.attributes
                0x00000373       0x31 STM32F4xx_StdPeriph_Driver\misc.o
 .ARM.attributes
                0x000003a4       0x31 STM32F4-Discovery\stm32f4_discovery_lis302dl.o
 .ARM.attributes
                0x000003d5       0x31 STM32F4-Discovery\stm32f4_discovery_audio_codec.o
 .ARM.attributes
                0x00000406       0x31 STM32F4-Discovery\stm32f4_discovery.o
 .ARM.attributes
                0x00000437       0x29 c:/program files/atollic/truestudio for stmicroelectronics stm32 lite 2.2.0/armtools/bin/../lib/gcc/arm-atollic-eabi/4.5.1/../../../../arm-atollic-eabi/lib/thumb/thumb2\libc.a(lib_a-init.o)
 .ARM.attributes
                0x00000460       0x29 c:/program files/atollic/truestudio for stmicroelectronics stm32 lite 2.2.0/armtools/bin/../lib/gcc/arm-atollic-eabi/4.5.1/thumb/thumb2/crtend.o
 .ARM.attributes
                0x00000489       0x19 c:/program files/atollic/truestudio for stmicroelectronics stm32 lite 2.2.0/armtools/bin/../lib/gcc/arm-atollic-eabi/4.5.1/thumb/thumb2/crtn.o
OUTPUT(MEDIA_InFLASH.elf elf32-littlearm)

.debug_line     0x00000000     0x4ec5
 .debug_line    0x00000000       0x6d c:/program files/atollic/truestudio for stmicroelectronics stm32 lite 2.2.0/armtools/bin/../lib/gcc/arm-atollic-eabi/4.5.1/thumb/thumb2/crti.o
 .debug_line    0x0000006d      0x38f User\waveplayer.o
 .debug_line    0x000003fc      0x1d8 User\system_stm32f4xx.o
 .debug_line    0x000005d4      0x27f User\stm32f4xx_it.o
 .debug_line    0x00000853      0x274 User\main.o
 .debug_line    0x00000ac7      0x11d User\audio_sample.o
 .debug_line    0x00000be4       0xb5 TrueSTUDIO\startup_stm32f4xx.o
 .debug_line    0x00000c99      0xab8 STM32F4xx_StdPeriph_Driver\stm32f4xx_tim.o
 .debug_line    0x00001751      0x205 STM32F4xx_StdPeriph_Driver\stm32f4xx_syscfg.o
 .debug_line    0x00001956      0x474 STM32F4xx_StdPeriph_Driver\stm32f4xx_spi.o
 .debug_line    0x00001dca      0x56a STM32F4xx_StdPeriph_Driver\stm32f4xx_rcc.o
 .debug_line    0x00002334      0x4ec STM32F4xx_StdPeriph_Driver\stm32f4xx_i2c.o
 .debug_line    0x00002820      0x327 STM32F4xx_StdPeriph_Driver\stm32f4xx_gpio.o
 .debug_line    0x00002b47      0x461 STM32F4xx_StdPeriph_Driver\stm32f4xx_flash.o
 .debug_line    0x00002fa8      0x28e STM32F4xx_StdPeriph_Driver\stm32f4xx_exti.o
 .debug_line    0x00003236      0x3bc STM32F4xx_StdPeriph_Driver\stm32f4xx_dma.o
 .debug_line    0x000035f2      0x340 STM32F4xx_StdPeriph_Driver\stm32f4xx_dac.o
 .debug_line    0x00003932      0x559 STM32F4xx_StdPeriph_Driver\stm32f4xx_adc.o
 .debug_line    0x00003e8b      0x23d STM32F4xx_StdPeriph_Driver\misc.o
 .debug_line    0x000040c8      0x3ed STM32F4-Discovery\stm32f4_discovery_lis302dl.o
 .debug_line    0x000044b5      0x6d7 STM32F4-Discovery\stm32f4_discovery_audio_codec.o
 .debug_line    0x00004b8c      0x2c9 STM32F4-Discovery\stm32f4_discovery.o
 .debug_line    0x00004e55       0x70 c:/program files/atollic/truestudio for stmicroelectronics stm32 lite 2.2.0/armtools/bin/../lib/gcc/arm-atollic-eabi/4.5.1/thumb/thumb2/crtn.o

.debug_info     0x00000000     0xc06b
 .debug_info    0x00000000       0x7e c:/program files/atollic/truestudio for stmicroelectronics stm32 lite 2.2.0/armtools/bin/../lib/gcc/arm-atollic-eabi/4.5.1/thumb/thumb2/crti.o
 .debug_info    0x0000007e      0xa7f User\waveplayer.o
 .debug_info    0x00000afd      0x643 User\system_stm32f4xx.o
 .debug_info    0x00001140      0x500 User\stm32f4xx_it.o
 .debug_info    0x00001640      0xc0b User\main.o
 .debug_info    0x0000224b       0xcd User\audio_sample.o
 .debug_info    0x00002318       0xff TrueSTUDIO\startup_stm32f4xx.o
 .debug_info    0x00002417     0x1e1d STM32F4xx_StdPeriph_Driver\stm32f4xx_tim.o
 .debug_info    0x00004234      0x279 STM32F4xx_StdPeriph_Driver\stm32f4xx_syscfg.o
 .debug_info    0x000044ad      0xbb5 STM32F4xx_StdPeriph_Driver\stm32f4xx_spi.o
 .debug_info    0x00005062      0xd05 STM32F4xx_StdPeriph_Driver\stm32f4xx_rcc.o
 .debug_info    0x00005d67      0xb6f STM32F4xx_StdPeriph_Driver\stm32f4xx_i2c.o
 .debug_info    0x000068d6      0x62d STM32F4xx_StdPeriph_Driver\stm32f4xx_gpio.o
 .debug_info    0x00006f03      0x780 STM32F4xx_StdPeriph_Driver\stm32f4xx_flash.o
 .debug_info    0x00007683      0x370 STM32F4xx_StdPeriph_Driver\stm32f4xx_exti.o
 .debug_info    0x000079f3      0x78b STM32F4xx_StdPeriph_Driver\stm32f4xx_dma.o
 .debug_info    0x0000817e      0x689 STM32F4xx_StdPeriph_Driver\stm32f4xx_dac.o
 .debug_info    0x00008807      0xcce STM32F4xx_StdPeriph_Driver\stm32f4xx_adc.o
 .debug_info    0x000094d5      0x596 STM32F4xx_StdPeriph_Driver\misc.o
 .debug_info    0x00009a6b      0x870 STM32F4-Discovery\stm32f4_discovery_lis302dl.o
 .debug_info    0x0000a2db     0x13ab STM32F4-Discovery\stm32f4_discovery_audio_codec.o
 .debug_info    0x0000b686      0x967 STM32F4-Discovery\stm32f4_discovery.o
 .debug_info    0x0000bfed       0x7e c:/program files/atollic/truestudio for stmicroelectronics stm32 lite 2.2.0/armtools/bin/../lib/gcc/arm-atollic-eabi/4.5.1/thumb/thumb2/crtn.o

.debug_abbrev   0x00000000     0x235a
 .debug_abbrev  0x00000000       0x12 c:/program files/atollic/truestudio for stmicroelectronics stm32 lite 2.2.0/armtools/bin/../lib/gcc/arm-atollic-eabi/4.5.1/thumb/thumb2/crti.o
 .debug_abbrev  0x00000012      0x294 User\waveplayer.o
 .debug_abbrev  0x000002a6      0x16e User\system_stm32f4xx.o
 .debug_abbrev  0x00000414      0x135 User\stm32f4xx_it.o
 .debug_abbrev  0x00000549      0x1e3 User\main.o
 .debug_abbrev  0x0000072c       0x79 User\audio_sample.o
 .debug_abbrev  0x000007a5       0x12 TrueSTUDIO\startup_stm32f4xx.o
 .debug_abbrev  0x000007b7      0x20e STM32F4xx_StdPeriph_Driver\stm32f4xx_tim.o
 .debug_abbrev  0x000009c5      0x152 STM32F4xx_StdPeriph_Driver\stm32f4xx_syscfg.o
 .debug_abbrev  0x00000b17      0x1ae STM32F4xx_StdPeriph_Driver\stm32f4xx_spi.o
 .debug_abbrev  0x00000cc5      0x1f8 STM32F4xx_StdPeriph_Driver\stm32f4xx_rcc.o
 .debug_abbrev  0x00000ebd      0x196 STM32F4xx_StdPeriph_Driver\stm32f4xx_i2c.o
 .debug_abbrev  0x00001053      0x1d0 STM32F4xx_StdPeriph_Driver\stm32f4xx_gpio.o
 .debug_abbrev  0x00001223      0x1c7 STM32F4xx_StdPeriph_Driver\stm32f4xx_flash.o
 .debug_abbrev  0x000013ea      0x1cf STM32F4xx_StdPeriph_Driver\stm32f4xx_exti.o
 .debug_abbrev  0x000015b9      0x19e STM32F4xx_StdPeriph_Driver\stm32f4xx_dma.o
 .debug_abbrev  0x00001757      0x1d9 STM32F4xx_StdPeriph_Driver\stm32f4xx_dac.o
 .debug_abbrev  0x00001930      0x1d7 STM32F4xx_StdPeriph_Driver\stm32f4xx_adc.o
 .debug_abbrev  0x00001b07      0x14e STM32F4xx_StdPeriph_Driver\misc.o
 .debug_abbrev  0x00001c55      0x1f9 STM32F4-Discovery\stm32f4_discovery_lis302dl.o
 .debug_abbrev  0x00001e4e      0x35c STM32F4-Discovery\stm32f4_discovery_audio_codec.o
 .debug_abbrev  0x000021aa      0x19e STM32F4-Discovery\stm32f4_discovery.o
 .debug_abbrev  0x00002348       0x12 c:/program files/atollic/truestudio for stmicroelectronics stm32 lite 2.2.0/armtools/bin/../lib/gcc/arm-atollic-eabi/4.5.1/thumb/thumb2/crtn.o

.debug_aranges  0x00000000      0xe88
 .debug_aranges
                0x00000000       0x28 c:/program files/atollic/truestudio for stmicroelectronics stm32 lite 2.2.0/armtools/bin/../lib/gcc/arm-atollic-eabi/4.5.1/thumb/thumb2/crti.o
 .debug_aranges
                0x00000028       0x88 User\waveplayer.o
 .debug_aranges
                0x000000b0       0x28 User\system_stm32f4xx.o
 .debug_aranges
                0x000000d8       0x70 User\stm32f4xx_it.o
 .debug_aranges
                0x00000148       0x20 User\main.o
 .debug_aranges
                0x00000168       0x28 TrueSTUDIO\startup_stm32f4xx.o
 .debug_aranges
                0x00000190      0x2e8 STM32F4xx_StdPeriph_Driver\stm32f4xx_tim.o
 .debug_aranges
                0x00000478       0x48 STM32F4xx_StdPeriph_Driver\stm32f4xx_syscfg.o
 .debug_aranges
                0x000004c0       0xe0 STM32F4xx_StdPeriph_Driver\stm32f4xx_spi.o
 .debug_aranges
                0x000005a0      0x178 STM32F4xx_StdPeriph_Driver\stm32f4xx_rcc.o
 .debug_aranges
                0x00000718      0x120 STM32F4xx_StdPeriph_Driver\stm32f4xx_i2c.o
 .debug_aranges
                0x00000838       0x88 STM32F4xx_StdPeriph_Driver\stm32f4xx_gpio.o
 .debug_aranges
                0x000008c0      0x108 STM32F4xx_StdPeriph_Driver\stm32f4xx_flash.o
 .debug_aranges
                0x000009c8       0x58 STM32F4xx_StdPeriph_Driver\stm32f4xx_exti.o
 .debug_aranges
                0x00000a20       0xb0 STM32F4xx_StdPeriph_Driver\stm32f4xx_dma.o
 .debug_aranges
                0x00000ad0       0xa0 STM32F4xx_StdPeriph_Driver\stm32f4xx_dac.o
 .debug_aranges
                0x00000b70      0x148 STM32F4xx_StdPeriph_Driver\stm32f4xx_adc.o
 .debug_aranges
                0x00000cb8       0x40 STM32F4xx_StdPeriph_Driver\misc.o
 .debug_aranges
                0x00000cf8       0x70 STM32F4-Discovery\stm32f4_discovery_lis302dl.o
 .debug_aranges
                0x00000d68       0xb0 STM32F4-Discovery\stm32f4_discovery_audio_codec.o
 .debug_aranges
                0x00000e18       0x48 STM32F4-Discovery\stm32f4_discovery.o
 .debug_aranges
                0x00000e60       0x28 c:/program files/atollic/truestudio for stmicroelectronics stm32 lite 2.2.0/armtools/bin/../lib/gcc/arm-atollic-eabi/4.5.1/thumb/thumb2/crtn.o

.debug_ranges   0x00000000      0xe48
 .debug_ranges  0x00000000       0x20 c:/program files/atollic/truestudio for stmicroelectronics stm32 lite 2.2.0/armtools/bin/../lib/gcc/arm-atollic-eabi/4.5.1/thumb/thumb2/crti.o
 .debug_ranges  0x00000020       0xa8 User\waveplayer.o
 .debug_ranges  0x000000c8       0x18 User\system_stm32f4xx.o
 .debug_ranges  0x000000e0       0x60 User\stm32f4xx_it.o
 .debug_ranges  0x00000140       0x10 User\main.o
 .debug_ranges  0x00000150       0x20 TrueSTUDIO\startup_stm32f4xx.o
 .debug_ranges  0x00000170      0x308 STM32F4xx_StdPeriph_Driver\stm32f4xx_tim.o
 .debug_ranges  0x00000478       0x38 STM32F4xx_StdPeriph_Driver\stm32f4xx_syscfg.o
 .debug_ranges  0x000004b0       0xd0 STM32F4xx_StdPeriph_Driver\stm32f4xx_spi.o
 .debug_ranges  0x00000580      0x168 STM32F4xx_StdPeriph_Driver\stm32f4xx_rcc.o
 .debug_ranges  0x000006e8      0x110 STM32F4xx_StdPeriph_Driver\stm32f4xx_i2c.o
 .debug_ranges  0x000007f8       0x78 STM32F4xx_StdPeriph_Driver\stm32f4xx_gpio.o
 .debug_ranges  0x00000870       0xf8 STM32F4xx_StdPeriph_Driver\stm32f4xx_flash.o
 .debug_ranges  0x00000968       0x48 STM32F4xx_StdPeriph_Driver\stm32f4xx_exti.o
 .debug_ranges  0x000009b0       0xa0 STM32F4xx_StdPeriph_Driver\stm32f4xx_dma.o
 .debug_ranges  0x00000a50       0x90 STM32F4xx_StdPeriph_Driver\stm32f4xx_dac.o
 .debug_ranges  0x00000ae0      0x138 STM32F4xx_StdPeriph_Driver\stm32f4xx_adc.o
 .debug_ranges  0x00000c18       0x30 STM32F4xx_StdPeriph_Driver\misc.o
 .debug_ranges  0x00000c48       0x90 STM32F4-Discovery\stm32f4_discovery_lis302dl.o
 .debug_ranges  0x00000cd8      0x118 STM32F4-Discovery\stm32f4_discovery_audio_codec.o
 .debug_ranges  0x00000df0       0x38 STM32F4-Discovery\stm32f4_discovery.o
 .debug_ranges  0x00000e28       0x20 c:/program files/atollic/truestudio for stmicroelectronics stm32 lite 2.2.0/armtools/bin/../lib/gcc/arm-atollic-eabi/4.5.1/thumb/thumb2/crtn.o

.comment        0x00000000       0xc2
 .comment       0x00000000       0x61 c:/program files/atollic/truestudio for stmicroelectronics stm32 lite 2.2.0/armtools/bin/../lib/gcc/arm-atollic-eabi/4.5.1/thumb/thumb2/crtbegin.o
                                 0x62 (size before relaxing)
 .comment       0x00000061       0x61 User\waveplayer.o
                                 0x62 (size before relaxing)
 .comment       0x00000000       0x62 User\system_stm32f4xx.o
 .comment       0x00000000       0x62 User\stm32f4xx_it.o
 .comment       0x00000000       0x62 User\main.o
 .comment       0x00000000       0x62 User\audio_sample.o
 .comment       0x00000000       0x62 STM32F4xx_StdPeriph_Driver\stm32f4xx_tim.o
 .comment       0x00000000       0x62 STM32F4xx_StdPeriph_Driver\stm32f4xx_syscfg.o
 .comment       0x00000000       0x62 STM32F4xx_StdPeriph_Driver\stm32f4xx_spi.o
 .comment       0x00000000       0x62 STM32F4xx_StdPeriph_Driver\stm32f4xx_rcc.o
 .comment       0x00000000       0x62 STM32F4xx_StdPeriph_Driver\stm32f4xx_i2c.o
 .comment       0x00000000       0x62 STM32F4xx_StdPeriph_Driver\stm32f4xx_gpio.o
 .comment       0x00000000       0x62 STM32F4xx_StdPeriph_Driver\stm32f4xx_flash.o
 .comment       0x00000000       0x62 STM32F4xx_StdPeriph_Driver\stm32f4xx_exti.o
 .comment       0x00000000       0x62 STM32F4xx_StdPeriph_Driver\stm32f4xx_dma.o
 .comment       0x00000000       0x62 STM32F4xx_StdPeriph_Driver\stm32f4xx_dac.o
 .comment       0x00000000       0x62 STM32F4xx_StdPeriph_Driver\stm32f4xx_adc.o
 .comment       0x00000000       0x62 STM32F4xx_StdPeriph_Driver\misc.o
 .comment       0x00000000       0x62 STM32F4-Discovery\stm32f4_discovery_lis302dl.o
 .comment       0x00000000       0x62 STM32F4-Discovery\stm32f4_discovery_audio_codec.o
 .comment       0x00000000       0x62 STM32F4-Discovery\stm32f4_discovery.o
 .comment       0x00000000       0x62 c:/program files/atollic/truestudio for stmicroelectronics stm32 lite 2.2.0/armtools/bin/../lib/gcc/arm-atollic-eabi/4.5.1/../../../../arm-atollic-eabi/lib/thumb/thumb2\libc.a(lib_a-init.o)
 .comment       0x00000000       0x62 c:/program files/atollic/truestudio for stmicroelectronics stm32 lite 2.2.0/armtools/bin/../lib/gcc/arm-atollic-eabi/4.5.1/thumb/thumb2/crtend.o

.debug_loc      0x00000000     0x4d3d
 .debug_loc     0x00000000      0x17c User\waveplayer.o
 .debug_loc     0x0000017c      0x10e User\system_stm32f4xx.o
 .debug_loc     0x0000028a       0x40 User\stm32f4xx_it.o
 .debug_loc     0x000002ca       0x7c User\main.o
 .debug_loc     0x00000346     0x114a STM32F4xx_StdPeriph_Driver\stm32f4xx_tim.o
 .debug_loc     0x00001490       0x9d STM32F4xx_StdPeriph_Driver\stm32f4xx_syscfg.o
 .debug_loc     0x0000152d      0x513 STM32F4xx_StdPeriph_Driver\stm32f4xx_spi.o
 .debug_loc     0x00001a40      0x6c0 STM32F4xx_StdPeriph_Driver\stm32f4xx_rcc.o
 .debug_loc     0x00002100      0x60a STM32F4xx_StdPeriph_Driver\stm32f4xx_i2c.o
 .debug_loc     0x0000270a      0x278 STM32F4xx_StdPeriph_Driver\stm32f4xx_gpio.o
 .debug_loc     0x00002982      0x589 STM32F4xx_StdPeriph_Driver\stm32f4xx_flash.o
 .debug_loc     0x00002f0b      0x12b STM32F4xx_StdPeriph_Driver\stm32f4xx_exti.o
 .debug_loc     0x00003036      0x308 STM32F4xx_StdPeriph_Driver\stm32f4xx_dma.o
 .debug_loc     0x0000333e      0x3bd STM32F4xx_StdPeriph_Driver\stm32f4xx_dac.o
 .debug_loc     0x000036fb      0x8fa STM32F4xx_StdPeriph_Driver\stm32f4xx_adc.o
 .debug_loc     0x00003ff5       0xff STM32F4xx_StdPeriph_Driver\misc.o
 .debug_loc     0x000040f4      0x4b0 STM32F4-Discovery\stm32f4_discovery_lis302dl.o
 .debug_loc     0x000045a4      0x6e1 STM32F4-Discovery\stm32f4_discovery_audio_codec.o
 .debug_loc     0x00004c85       0xb8 STM32F4-Discovery\stm32f4_discovery.o

.debug_pubnames
                0x00000000     0x2743
 .debug_pubnames
                0x00000000      0x1da User\waveplayer.o
 .debug_pubnames
                0x000001da       0x61 User\system_stm32f4xx.o
 .debug_pubnames
                0x0000023b      0x12a User\stm32f4xx_it.o
 .debug_pubnames
                0x00000365       0x46 User\main.o
 .debug_pubnames
                0x000003ab       0x23 User\audio_sample.o
 .debug_pubnames
                0x000003ce      0x7c4 STM32F4xx_StdPeriph_Driver\stm32f4xx_tim.o
 .debug_pubnames
                0x00000b92       0xc3 STM32F4xx_StdPeriph_Driver\stm32f4xx_syscfg.o
 .debug_pubnames
                0x00000c55      0x221 STM32F4xx_StdPeriph_Driver\stm32f4xx_spi.o
 .debug_pubnames
                0x00000e76      0x417 STM32F4xx_StdPeriph_Driver\stm32f4xx_rcc.o
 .debug_pubnames
                0x0000128d      0x2cb STM32F4xx_StdPeriph_Driver\stm32f4xx_i2c.o
 .debug_pubnames
                0x00001558      0x12d STM32F4xx_StdPeriph_Driver\stm32f4xx_gpio.o
 .debug_pubnames
                0x00001685      0x2bd STM32F4xx_StdPeriph_Driver\stm32f4xx_flash.o
 .debug_pubnames
                0x00001942       0xbb STM32F4xx_StdPeriph_Driver\stm32f4xx_exti.o
 .debug_pubnames
                0x000019fd      0x1c9 STM32F4xx_StdPeriph_Driver\stm32f4xx_dma.o
 .debug_pubnames
                0x00001bc6      0x17d STM32F4xx_StdPeriph_Driver\stm32f4xx_dac.o
 .debug_pubnames
                0x00001d43      0x446 STM32F4xx_StdPeriph_Driver\stm32f4xx_adc.o
 .debug_pubnames
                0x00002189       0x89 STM32F4xx_StdPeriph_Driver\misc.o
 .debug_pubnames
                0x00002212      0x10c STM32F4-Discovery\stm32f4_discovery_lis302dl.o
 .debug_pubnames
                0x0000231e      0x2d5 STM32F4-Discovery\stm32f4_discovery_audio_codec.o
 .debug_pubnames
                0x000025f3      0x150 STM32F4-Discovery\stm32f4_discovery.o

.debug_pubtypes
                0x00000000      0xfc7
 .debug_pubtypes
                0x00000000      0x171 User\waveplayer.o
 .debug_pubtypes
                0x00000171       0x83 User\system_stm32f4xx.o
 .debug_pubtypes
                0x000001f4       0x54 User\stm32f4xx_it.o
 .debug_pubtypes
                0x00000248      0x108 User\main.o
 .debug_pubtypes
                0x00000350       0x2b User\audio_sample.o
 .debug_pubtypes
                0x0000037b       0xe4 STM32F4xx_StdPeriph_Driver\stm32f4xx_tim.o
 .debug_pubtypes
                0x0000045f       0x6d STM32F4xx_StdPeriph_Driver\stm32f4xx_syscfg.o
 .debug_pubtypes
                0x000004cc       0xbc STM32F4xx_StdPeriph_Driver\stm32f4xx_spi.o
 .debug_pubtypes
                0x00000588       0xaa STM32F4xx_StdPeriph_Driver\stm32f4xx_rcc.o
 .debug_pubtypes
                0x00000632       0xbe STM32F4xx_StdPeriph_Driver\stm32f4xx_i2c.o
 .debug_pubtypes
                0x000006f0       0xce STM32F4xx_StdPeriph_Driver\stm32f4xx_gpio.o
 .debug_pubtypes
                0x000007be       0x97 STM32F4xx_StdPeriph_Driver\stm32f4xx_flash.o
 .debug_pubtypes
                0x00000855       0xae STM32F4xx_StdPeriph_Driver\stm32f4xx_exti.o
 .debug_pubtypes
                0x00000903       0xa3 STM32F4xx_StdPeriph_Driver\stm32f4xx_dma.o
 .debug_pubtypes
                0x000009a6       0x98 STM32F4xx_StdPeriph_Driver\stm32f4xx_dac.o
 .debug_pubtypes
                0x00000a3e       0xc9 STM32F4xx_StdPeriph_Driver\stm32f4xx_adc.o
 .debug_pubtypes
                0x00000b07       0x8c STM32F4xx_StdPeriph_Driver\misc.o
 .debug_pubtypes
                0x00000b93      0x14d STM32F4-Discovery\stm32f4_discovery_lis302dl.o
 .debug_pubtypes
                0x00000ce0      0x179 STM32F4-Discovery\stm32f4_discovery_audio_codec.o
 .debug_pubtypes
                0x00000e59      0x16e STM32F4-Discovery\stm32f4_discovery.o

.debug_str      0x00000000     0x459d
 .debug_str     0x00000000      0xbfb User\waveplayer.o
                                0xc5d (size before relaxing)
 .debug_str     0x00000bfb      0x204 User\system_stm32f4xx.o
                                0x35f (size before relaxing)
 .debug_str     0x00000dff      0x194 User\stm32f4xx_it.o
                                0x35b (size before relaxing)
 .debug_str     0x00000f93      0x22d User\main.o
                                0xa94 (size before relaxing)
 .debug_str     0x000011c0       0x1c User\audio_sample.o
                                0x155 (size before relaxing)
 .debug_str     0x000011dc      0xa10 STM32F4xx_StdPeriph_Driver\stm32f4xx_tim.o
                                0xdaa (size before relaxing)
 .debug_str     0x00001bec      0x162 STM32F4xx_StdPeriph_Driver\stm32f4xx_syscfg.o
                                0x2d9 (size before relaxing)
 .debug_str     0x00001d4e      0x3b9 STM32F4xx_StdPeriph_Driver\stm32f4xx_spi.o
                                0x664 (size before relaxing)
 .debug_str     0x00002107      0x50b STM32F4xx_StdPeriph_Driver\stm32f4xx_rcc.o
                                0x82a (size before relaxing)
 .debug_str     0x00002612      0x3c8 STM32F4xx_StdPeriph_Driver\stm32f4xx_i2c.o
                                0x63f (size before relaxing)
 .debug_str     0x000029da      0x186 STM32F4xx_StdPeriph_Driver\stm32f4xx_gpio.o
                                0x47d (size before relaxing)
 .debug_str     0x00002b60      0x3ac STM32F4xx_StdPeriph_Driver\stm32f4xx_flash.o
                                0x561 (size before relaxing)
 .debug_str     0x00002f0c       0xff STM32F4xx_StdPeriph_Driver\stm32f4xx_exti.o
                                0x348 (size before relaxing)
 .debug_str     0x0000300b      0x383 STM32F4xx_StdPeriph_Driver\stm32f4xx_dma.o
                                0x526 (size before relaxing)
 .debug_str     0x0000338e      0x292 STM32F4xx_StdPeriph_Driver\stm32f4xx_dac.o
                                0x42d (size before relaxing)
 .debug_str     0x00003620      0x61c STM32F4xx_StdPeriph_Driver\stm32f4xx_adc.o
                                0x7de (size before relaxing)
 .debug_str     0x00003c3c      0x10b STM32F4xx_StdPeriph_Driver\misc.o
                                0x3b3 (size before relaxing)
 .debug_str     0x00003d47      0x252 STM32F4-Discovery\stm32f4_discovery_lis302dl.o
                                0x724 (size before relaxing)
 .debug_str     0x00003f99      0x46f STM32F4-Discovery\stm32f4_discovery_audio_codec.o
                               0x103e (size before relaxing)
 .debug_str     0x00004408      0x195 STM32F4-Discovery\stm32f4_discovery.o
                                0xb03 (size before relaxing)

.debug_frame    0x00000000     0x1dfc
 .debug_frame   0x00000000      0x12c User\waveplayer.o
 .debug_frame   0x0000012c       0x34 User\system_stm32f4xx.o
 .debug_frame   0x00000160       0xd4 User\stm32f4xx_it.o
 .debug_frame   0x00000234       0x30 User\main.o
 .debug_frame   0x00000264      0x674 STM32F4xx_StdPeriph_Driver\stm32f4xx_tim.o
 .debug_frame   0x000008d8       0x84 STM32F4xx_StdPeriph_Driver\stm32f4xx_syscfg.o
 .debug_frame   0x0000095c      0x1d0 STM32F4xx_StdPeriph_Driver\stm32f4xx_spi.o
 .debug_frame   0x00000b2c      0x2e4 STM32F4xx_StdPeriph_Driver\stm32f4xx_rcc.o
 .debug_frame   0x00000e10      0x244 STM32F4xx_StdPeriph_Driver\stm32f4xx_i2c.o
 .debug_frame   0x00001054      0x118 STM32F4xx_StdPeriph_Driver\stm32f4xx_gpio.o
 .debug_frame   0x0000116c      0x264 STM32F4xx_StdPeriph_Driver\stm32f4xx_flash.o
 .debug_frame   0x000013d0       0x98 STM32F4xx_StdPeriph_Driver\stm32f4xx_exti.o
 .debug_frame   0x00001468      0x170 STM32F4xx_StdPeriph_Driver\stm32f4xx_dma.o
 .debug_frame   0x000015d8      0x140 STM32F4xx_StdPeriph_Driver\stm32f4xx_dac.o
 .debug_frame   0x00001718      0x2ac STM32F4xx_StdPeriph_Driver\stm32f4xx_adc.o
 .debug_frame   0x000019c4       0x68 STM32F4xx_StdPeriph_Driver\misc.o
 .debug_frame   0x00001a2c      0x158 STM32F4-Discovery\stm32f4_discovery_lis302dl.o
 .debug_frame   0x00001b84      0x1e4 STM32F4-Discovery\stm32f4_discovery_audio_codec.o
 .debug_frame   0x00001d68       0x94 STM32F4-Discovery\stm32f4_discovery.o

Cross Reference Table

Symbol                                            File
ADC_AnalogWatchdogCmd                             STM32F4xx_StdPeriph_Driver\stm32f4xx_adc.o
ADC_AnalogWatchdogSingleChannelConfig             STM32F4xx_StdPeriph_Driver\stm32f4xx_adc.o
ADC_AnalogWatchdogThresholdsConfig                STM32F4xx_StdPeriph_Driver\stm32f4xx_adc.o
ADC_AutoInjectedConvCmd                           STM32F4xx_StdPeriph_Driver\stm32f4xx_adc.o
ADC_ClearFlag                                     STM32F4xx_StdPeriph_Driver\stm32f4xx_adc.o
ADC_ClearITPendingBit                             STM32F4xx_StdPeriph_Driver\stm32f4xx_adc.o
ADC_Cmd                                           STM32F4xx_StdPeriph_Driver\stm32f4xx_adc.o
ADC_CommonInit                                    STM32F4xx_StdPeriph_Driver\stm32f4xx_adc.o
ADC_CommonStructInit                              STM32F4xx_StdPeriph_Driver\stm32f4xx_adc.o
ADC_ContinuousModeCmd                             STM32F4xx_StdPeriph_Driver\stm32f4xx_adc.o
ADC_DMACmd                                        STM32F4xx_StdPeriph_Driver\stm32f4xx_adc.o
ADC_DMARequestAfterLastTransferCmd                STM32F4xx_StdPeriph_Driver\stm32f4xx_adc.o
ADC_DeInit                                        STM32F4xx_StdPeriph_Driver\stm32f4xx_adc.o
ADC_DiscModeChannelCountConfig                    STM32F4xx_StdPeriph_Driver\stm32f4xx_adc.o
ADC_DiscModeCmd                                   STM32F4xx_StdPeriph_Driver\stm32f4xx_adc.o
ADC_EOCOnEachRegularChannelCmd                    STM32F4xx_StdPeriph_Driver\stm32f4xx_adc.o
ADC_ExternalTrigInjectedConvConfig                STM32F4xx_StdPeriph_Driver\stm32f4xx_adc.o
ADC_ExternalTrigInjectedConvEdgeConfig            STM32F4xx_StdPeriph_Driver\stm32f4xx_adc.o
ADC_GetConversionValue                            STM32F4xx_StdPeriph_Driver\stm32f4xx_adc.o
ADC_GetFlagStatus                                 STM32F4xx_StdPeriph_Driver\stm32f4xx_adc.o
ADC_GetITStatus                                   STM32F4xx_StdPeriph_Driver\stm32f4xx_adc.o
ADC_GetInjectedConversionValue                    STM32F4xx_StdPeriph_Driver\stm32f4xx_adc.o
ADC_GetMultiModeConversionValue                   STM32F4xx_StdPeriph_Driver\stm32f4xx_adc.o
ADC_GetSoftwareStartConvStatus                    STM32F4xx_StdPeriph_Driver\stm32f4xx_adc.o
ADC_GetSoftwareStartInjectedConvCmdStatus         STM32F4xx_StdPeriph_Driver\stm32f4xx_adc.o
ADC_IRQHandler                                    TrueSTUDIO\startup_stm32f4xx.o
ADC_ITConfig                                      STM32F4xx_StdPeriph_Driver\stm32f4xx_adc.o
ADC_Init                                          STM32F4xx_StdPeriph_Driver\stm32f4xx_adc.o
ADC_InjectedChannelConfig                         STM32F4xx_StdPeriph_Driver\stm32f4xx_adc.o
ADC_InjectedDiscModeCmd                           STM32F4xx_StdPeriph_Driver\stm32f4xx_adc.o
ADC_InjectedSequencerLengthConfig                 STM32F4xx_StdPeriph_Driver\stm32f4xx_adc.o
ADC_MultiModeDMARequestAfterLastTransferCmd       STM32F4xx_StdPeriph_Driver\stm32f4xx_adc.o
ADC_RegularChannelConfig                          STM32F4xx_StdPeriph_Driver\stm32f4xx_adc.o
ADC_SetInjectedOffset                             STM32F4xx_StdPeriph_Driver\stm32f4xx_adc.o
ADC_SoftwareStartConv                             STM32F4xx_StdPeriph_Driver\stm32f4xx_adc.o
ADC_SoftwareStartInjectedConv                     STM32F4xx_StdPeriph_Driver\stm32f4xx_adc.o
ADC_StructInit                                    STM32F4xx_StdPeriph_Driver\stm32f4xx_adc.o
ADC_TempSensorVrefintCmd                          STM32F4xx_StdPeriph_Driver\stm32f4xx_adc.o
ADC_VBATCmd                                       STM32F4xx_StdPeriph_Driver\stm32f4xx_adc.o
AHBPrescTable                                     User\system_stm32f4xx.o
AUDIO_MAL_DMA_CHANNEL                             STM32F4-Discovery\stm32f4_discovery_audio_codec.o
AUDIO_MAL_DMA_CLOCK                               STM32F4-Discovery\stm32f4_discovery_audio_codec.o
AUDIO_MAL_DMA_DREG                                STM32F4-Discovery\stm32f4_discovery_audio_codec.o
AUDIO_MAL_DMA_FLAG_DME                            STM32F4-Discovery\stm32f4_discovery_audio_codec.o
AUDIO_MAL_DMA_FLAG_FE                             STM32F4-Discovery\stm32f4_discovery_audio_codec.o
AUDIO_MAL_DMA_FLAG_HT                             STM32F4-Discovery\stm32f4_discovery_audio_codec.o
AUDIO_MAL_DMA_FLAG_TC                             STM32F4-Discovery\stm32f4_discovery_audio_codec.o
AUDIO_MAL_DMA_FLAG_TE                             STM32F4-Discovery\stm32f4_discovery_audio_codec.o
AUDIO_MAL_DMA_IRQ                                 STM32F4-Discovery\stm32f4_discovery_audio_codec.o
AUDIO_MAL_DMA_InitStructure                       STM32F4-Discovery\stm32f4_discovery_audio_codec.o
AUDIO_MAL_DMA_STREAM                              STM32F4-Discovery\stm32f4_discovery_audio_codec.o
AUDIO_SAMPLE                                      User\audio_sample.o
                                                  User\waveplayer.o
AudioFlashPlay                                    User\waveplayer.o
AudioPlayStart                                    User\waveplayer.o
                                                  User\stm32f4xx_it.o
AudioRemSize                                      STM32F4-Discovery\stm32f4_discovery_audio_codec.o
AudioTotalSize                                    STM32F4-Discovery\stm32f4_discovery_audio_codec.o
Audio_MAL_Play                                    STM32F4-Discovery\stm32f4_discovery_audio_codec.o
BUTTON_CLK                                        STM32F4-Discovery\stm32f4_discovery.o
BUTTON_EXTI_LINE                                  STM32F4-Discovery\stm32f4_discovery.o
BUTTON_IRQn                                       STM32F4-Discovery\stm32f4_discovery.o
BUTTON_PIN                                        STM32F4-Discovery\stm32f4_discovery.o
BUTTON_PIN_SOURCE                                 STM32F4-Discovery\stm32f4_discovery.o
BUTTON_PORT                                       STM32F4-Discovery\stm32f4_discovery.o
BUTTON_PORT_SOURCE                                STM32F4-Discovery\stm32f4_discovery.o
Buffer                                            User\stm32f4xx_it.o
                                                  User\waveplayer.o
BusFault_Handler                                  User\stm32f4xx_it.o
CAN1_RX0_IRQHandler                               TrueSTUDIO\startup_stm32f4xx.o
CAN1_RX1_IRQHandler                               TrueSTUDIO\startup_stm32f4xx.o
CAN1_SCE_IRQHandler                               TrueSTUDIO\startup_stm32f4xx.o
CAN1_TX_IRQHandler                                TrueSTUDIO\startup_stm32f4xx.o
CAN2_RX0_IRQHandler                               TrueSTUDIO\startup_stm32f4xx.o
CAN2_RX1_IRQHandler                               TrueSTUDIO\startup_stm32f4xx.o
CAN2_SCE_IRQHandler                               TrueSTUDIO\startup_stm32f4xx.o
CAN2_TX_IRQHandler                                TrueSTUDIO\startup_stm32f4xx.o
CCR_Val                                           User\main.o
                                                  User\stm32f4xx_it.o
CODECTimeout                                      STM32F4-Discovery\stm32f4_discovery_audio_codec.o
CRYP_IRQHandler                                   TrueSTUDIO\startup_stm32f4xx.o
Codec_TIMEOUT_UserCallback                        User\waveplayer.o
                                                  STM32F4-Discovery\stm32f4_discovery_audio_codec.o
Count                                             User\stm32f4xx_it.o
CurrAudioInterface                                STM32F4-Discovery\stm32f4_discovery_audio_codec.o
CurrentPos                                        STM32F4-Discovery\stm32f4_discovery_audio_codec.o
DAC_ClearFlag                                     STM32F4xx_StdPeriph_Driver\stm32f4xx_dac.o
DAC_ClearITPendingBit                             STM32F4xx_StdPeriph_Driver\stm32f4xx_dac.o
DAC_Cmd                                           STM32F4xx_StdPeriph_Driver\stm32f4xx_dac.o
                                                  STM32F4-Discovery\stm32f4_discovery_audio_codec.o
DAC_Config                                        STM32F4-Discovery\stm32f4_discovery_audio_codec.o
DAC_DMACmd                                        STM32F4xx_StdPeriph_Driver\stm32f4xx_dac.o
DAC_DeInit                                        STM32F4xx_StdPeriph_Driver\stm32f4xx_dac.o
DAC_DualSoftwareTriggerCmd                        STM32F4xx_StdPeriph_Driver\stm32f4xx_dac.o
DAC_GetDataOutputValue                            STM32F4xx_StdPeriph_Driver\stm32f4xx_dac.o
DAC_GetFlagStatus                                 STM32F4xx_StdPeriph_Driver\stm32f4xx_dac.o
DAC_GetITStatus                                   STM32F4xx_StdPeriph_Driver\stm32f4xx_dac.o
DAC_ITConfig                                      STM32F4xx_StdPeriph_Driver\stm32f4xx_dac.o
DAC_Init                                          STM32F4xx_StdPeriph_Driver\stm32f4xx_dac.o
                                                  STM32F4-Discovery\stm32f4_discovery_audio_codec.o
DAC_SetChannel1Data                               STM32F4xx_StdPeriph_Driver\stm32f4xx_dac.o
                                                  STM32F4-Discovery\stm32f4_discovery_audio_codec.o
DAC_SetChannel2Data                               STM32F4xx_StdPeriph_Driver\stm32f4xx_dac.o
DAC_SetDualChannelData                            STM32F4xx_StdPeriph_Driver\stm32f4xx_dac.o
DAC_SoftwareTriggerCmd                            STM32F4xx_StdPeriph_Driver\stm32f4xx_dac.o
DAC_StructInit                                    STM32F4xx_StdPeriph_Driver\stm32f4xx_dac.o
DAC_WaveGenerationCmd                             STM32F4xx_StdPeriph_Driver\stm32f4xx_dac.o
DCMI_IRQHandler                                   TrueSTUDIO\startup_stm32f4xx.o
DMA1_Stream0_IRQHandler                           STM32F4-Discovery\stm32f4_discovery_audio_codec.o
                                                  TrueSTUDIO\startup_stm32f4xx.o
DMA1_Stream1_IRQHandler                           TrueSTUDIO\startup_stm32f4xx.o
DMA1_Stream2_IRQHandler                           TrueSTUDIO\startup_stm32f4xx.o
DMA1_Stream3_IRQHandler                           TrueSTUDIO\startup_stm32f4xx.o
DMA1_Stream4_IRQHandler                           TrueSTUDIO\startup_stm32f4xx.o
DMA1_Stream5_IRQHandler                           TrueSTUDIO\startup_stm32f4xx.o
DMA1_Stream6_IRQHandler                           TrueSTUDIO\startup_stm32f4xx.o
DMA1_Stream7_IRQHandler                           STM32F4-Discovery\stm32f4_discovery_audio_codec.o
                                                  TrueSTUDIO\startup_stm32f4xx.o
DMA2_Stream0_IRQHandler                           TrueSTUDIO\startup_stm32f4xx.o
DMA2_Stream1_IRQHandler                           TrueSTUDIO\startup_stm32f4xx.o
DMA2_Stream2_IRQHandler                           TrueSTUDIO\startup_stm32f4xx.o
DMA2_Stream3_IRQHandler                           TrueSTUDIO\startup_stm32f4xx.o
DMA2_Stream4_IRQHandler                           TrueSTUDIO\startup_stm32f4xx.o
DMA2_Stream5_IRQHandler                           TrueSTUDIO\startup_stm32f4xx.o
DMA2_Stream6_IRQHandler                           TrueSTUDIO\startup_stm32f4xx.o
DMA2_Stream7_IRQHandler                           TrueSTUDIO\startup_stm32f4xx.o
DMA_ClearFlag                                     STM32F4xx_StdPeriph_Driver\stm32f4xx_dma.o
                                                  STM32F4-Discovery\stm32f4_discovery_audio_codec.o
DMA_ClearITPendingBit                             STM32F4xx_StdPeriph_Driver\stm32f4xx_dma.o
DMA_Cmd                                           STM32F4xx_StdPeriph_Driver\stm32f4xx_dma.o
                                                  STM32F4-Discovery\stm32f4_discovery_audio_codec.o
DMA_DeInit                                        STM32F4xx_StdPeriph_Driver\stm32f4xx_dma.o
                                                  STM32F4-Discovery\stm32f4_discovery_audio_codec.o
DMA_DoubleBufferModeCmd                           STM32F4xx_StdPeriph_Driver\stm32f4xx_dma.o
DMA_DoubleBufferModeConfig                        STM32F4xx_StdPeriph_Driver\stm32f4xx_dma.o
DMA_FlowControllerConfig                          STM32F4xx_StdPeriph_Driver\stm32f4xx_dma.o
DMA_GetCmdStatus                                  STM32F4xx_StdPeriph_Driver\stm32f4xx_dma.o
                                                  STM32F4-Discovery\stm32f4_discovery_audio_codec.o
DMA_GetCurrDataCounter                            STM32F4xx_StdPeriph_Driver\stm32f4xx_dma.o
DMA_GetCurrentMemoryTarget                        STM32F4xx_StdPeriph_Driver\stm32f4xx_dma.o
DMA_GetFIFOStatus                                 STM32F4xx_StdPeriph_Driver\stm32f4xx_dma.o
DMA_GetFlagStatus                                 STM32F4xx_StdPeriph_Driver\stm32f4xx_dma.o
                                                  STM32F4-Discovery\stm32f4_discovery_audio_codec.o
DMA_GetITStatus                                   STM32F4xx_StdPeriph_Driver\stm32f4xx_dma.o
DMA_ITConfig                                      STM32F4xx_StdPeriph_Driver\stm32f4xx_dma.o
                                                  STM32F4-Discovery\stm32f4_discovery_audio_codec.o
DMA_Init                                          STM32F4xx_StdPeriph_Driver\stm32f4xx_dma.o
                                                  STM32F4-Discovery\stm32f4_discovery_audio_codec.o
DMA_InitStructure                                 STM32F4-Discovery\stm32f4_discovery_audio_codec.o
DMA_MemoryTargetConfig                            STM32F4xx_StdPeriph_Driver\stm32f4xx_dma.o
DMA_PeriphIncOffsetSizeConfig                     STM32F4xx_StdPeriph_Driver\stm32f4xx_dma.o
DMA_SetCurrDataCounter                            STM32F4xx_StdPeriph_Driver\stm32f4xx_dma.o
DMA_StructInit                                    STM32F4xx_StdPeriph_Driver\stm32f4xx_dma.o
DebugMon_Handler                                  User\stm32f4xx_it.o
Default_Handler                                   TrueSTUDIO\startup_stm32f4xx.o
Delay                                             User\waveplayer.o
ETH_IRQHandler                                    TrueSTUDIO\startup_stm32f4xx.o
ETH_WKUP_IRQHandler                               TrueSTUDIO\startup_stm32f4xx.o
EVAL_AUDIO_DeInit                                 STM32F4-Discovery\stm32f4_discovery_audio_codec.o
EVAL_AUDIO_Error_CallBack                         User\waveplayer.o
EVAL_AUDIO_GetSampleCallBack                      User\waveplayer.o
                                                  STM32F4-Discovery\stm32f4_discovery_audio_codec.o
EVAL_AUDIO_HalfTransfer_CallBack                  User\waveplayer.o
EVAL_AUDIO_Init                                   STM32F4-Discovery\stm32f4_discovery_audio_codec.o
                                                  User\waveplayer.o
EVAL_AUDIO_Mute                                   STM32F4-Discovery\stm32f4_discovery_audio_codec.o
EVAL_AUDIO_PauseResume                            STM32F4-Discovery\stm32f4_discovery_audio_codec.o
                                                  User\waveplayer.o
EVAL_AUDIO_Play                                   STM32F4-Discovery\stm32f4_discovery_audio_codec.o
                                                  User\waveplayer.o
EVAL_AUDIO_SetAudioInterface                      STM32F4-Discovery\stm32f4_discovery_audio_codec.o
                                                  User\waveplayer.o
EVAL_AUDIO_Stop                                   STM32F4-Discovery\stm32f4_discovery_audio_codec.o
                                                  User\waveplayer.o
EVAL_AUDIO_TransferComplete_CallBack              User\waveplayer.o
                                                  STM32F4-Discovery\stm32f4_discovery_audio_codec.o
EVAL_AUDIO_VolumeCtl                              STM32F4-Discovery\stm32f4_discovery_audio_codec.o
                                                  User\waveplayer.o
EXTI0_IRQHandler                                  TrueSTUDIO\startup_stm32f4xx.o
EXTI15_10_IRQHandler                              TrueSTUDIO\startup_stm32f4xx.o
EXTI1_IRQHandler                                  User\stm32f4xx_it.o
EXTI2_IRQHandler                                  TrueSTUDIO\startup_stm32f4xx.o
EXTI3_IRQHandler                                  TrueSTUDIO\startup_stm32f4xx.o
EXTI4_IRQHandler                                  TrueSTUDIO\startup_stm32f4xx.o
EXTI9_5_IRQHandler                                TrueSTUDIO\startup_stm32f4xx.o
EXTI_ClearFlag                                    STM32F4xx_StdPeriph_Driver\stm32f4xx_exti.o
EXTI_ClearITPendingBit                            STM32F4xx_StdPeriph_Driver\stm32f4xx_exti.o
                                                  User\stm32f4xx_it.o
EXTI_DeInit                                       STM32F4xx_StdPeriph_Driver\stm32f4xx_exti.o
EXTI_GenerateSWInterrupt                          STM32F4xx_StdPeriph_Driver\stm32f4xx_exti.o
EXTI_GetFlagStatus                                STM32F4xx_StdPeriph_Driver\stm32f4xx_exti.o
EXTI_GetITStatus                                  STM32F4xx_StdPeriph_Driver\stm32f4xx_exti.o
                                                  User\stm32f4xx_it.o
EXTI_Init                                         STM32F4xx_StdPeriph_Driver\stm32f4xx_exti.o
                                                  STM32F4-Discovery\stm32f4_discovery.o
                                                  User\waveplayer.o
EXTI_StructInit                                   STM32F4xx_StdPeriph_Driver\stm32f4xx_exti.o
FLASH_ClearFlag                                   STM32F4xx_StdPeriph_Driver\stm32f4xx_flash.o
FLASH_DataCacheCmd                                STM32F4xx_StdPeriph_Driver\stm32f4xx_flash.o
FLASH_DataCacheReset                              STM32F4xx_StdPeriph_Driver\stm32f4xx_flash.o
FLASH_EraseAllSectors                             STM32F4xx_StdPeriph_Driver\stm32f4xx_flash.o
FLASH_EraseSector                                 STM32F4xx_StdPeriph_Driver\stm32f4xx_flash.o
FLASH_GetFlagStatus                               STM32F4xx_StdPeriph_Driver\stm32f4xx_flash.o
FLASH_GetStatus                                   STM32F4xx_StdPeriph_Driver\stm32f4xx_flash.o
FLASH_IRQHandler                                  TrueSTUDIO\startup_stm32f4xx.o
FLASH_ITConfig                                    STM32F4xx_StdPeriph_Driver\stm32f4xx_flash.o
FLASH_InstructionCacheCmd                         STM32F4xx_StdPeriph_Driver\stm32f4xx_flash.o
FLASH_InstructionCacheReset                       STM32F4xx_StdPeriph_Driver\stm32f4xx_flash.o
FLASH_Lock                                        STM32F4xx_StdPeriph_Driver\stm32f4xx_flash.o
FLASH_OB_BORConfig                                STM32F4xx_StdPeriph_Driver\stm32f4xx_flash.o
FLASH_OB_GetBOR                                   STM32F4xx_StdPeriph_Driver\stm32f4xx_flash.o
FLASH_OB_GetRDP                                   STM32F4xx_StdPeriph_Driver\stm32f4xx_flash.o
FLASH_OB_GetUser                                  STM32F4xx_StdPeriph_Driver\stm32f4xx_flash.o
FLASH_OB_GetWRP                                   STM32F4xx_StdPeriph_Driver\stm32f4xx_flash.o
FLASH_OB_Launch                                   STM32F4xx_StdPeriph_Driver\stm32f4xx_flash.o
FLASH_OB_Lock                                     STM32F4xx_StdPeriph_Driver\stm32f4xx_flash.o
FLASH_OB_RDPConfig                                STM32F4xx_StdPeriph_Driver\stm32f4xx_flash.o
FLASH_OB_Unlock                                   STM32F4xx_StdPeriph_Driver\stm32f4xx_flash.o
FLASH_OB_UserConfig                               STM32F4xx_StdPeriph_Driver\stm32f4xx_flash.o
FLASH_OB_WRPConfig                                STM32F4xx_StdPeriph_Driver\stm32f4xx_flash.o
FLASH_PrefetchBufferCmd                           STM32F4xx_StdPeriph_Driver\stm32f4xx_flash.o
FLASH_ProgramByte                                 STM32F4xx_StdPeriph_Driver\stm32f4xx_flash.o
FLASH_ProgramDoubleWord                           STM32F4xx_StdPeriph_Driver\stm32f4xx_flash.o
FLASH_ProgramHalfWord                             STM32F4xx_StdPeriph_Driver\stm32f4xx_flash.o
FLASH_ProgramWord                                 STM32F4xx_StdPeriph_Driver\stm32f4xx_flash.o
FLASH_SetLatency                                  STM32F4xx_StdPeriph_Driver\stm32f4xx_flash.o
FLASH_Unlock                                      STM32F4xx_StdPeriph_Driver\stm32f4xx_flash.o
FLASH_WaitForLastOperation                        STM32F4xx_StdPeriph_Driver\stm32f4xx_flash.o
FPU_IRQHandler                                    TrueSTUDIO\startup_stm32f4xx.o
FSMC_IRQHandler                                   TrueSTUDIO\startup_stm32f4xx.o
GPIO_CLK                                          STM32F4-Discovery\stm32f4_discovery.o
GPIO_DeInit                                       STM32F4xx_StdPeriph_Driver\stm32f4xx_gpio.o
GPIO_Init                                         STM32F4xx_StdPeriph_Driver\stm32f4xx_gpio.o
                                                  STM32F4-Discovery\stm32f4_discovery.o
                                                  STM32F4-Discovery\stm32f4_discovery_audio_codec.o
                                                  STM32F4-Discovery\stm32f4_discovery_lis302dl.o
                                                  User\waveplayer.o
GPIO_PIN                                          STM32F4-Discovery\stm32f4_discovery.o
GPIO_PORT                                         STM32F4-Discovery\stm32f4_discovery.o
GPIO_PinAFConfig                                  STM32F4xx_StdPeriph_Driver\stm32f4xx_gpio.o
                                                  STM32F4-Discovery\stm32f4_discovery_audio_codec.o
                                                  STM32F4-Discovery\stm32f4_discovery_lis302dl.o
GPIO_PinLockConfig                                STM32F4xx_StdPeriph_Driver\stm32f4xx_gpio.o
GPIO_ReadInputData                                STM32F4xx_StdPeriph_Driver\stm32f4xx_gpio.o
GPIO_ReadInputDataBit                             STM32F4xx_StdPeriph_Driver\stm32f4xx_gpio.o
                                                  STM32F4-Discovery\stm32f4_discovery.o
GPIO_ReadOutputData                               STM32F4xx_StdPeriph_Driver\stm32f4xx_gpio.o
GPIO_ReadOutputDataBit                            STM32F4xx_StdPeriph_Driver\stm32f4xx_gpio.o
GPIO_ResetBits                                    STM32F4xx_StdPeriph_Driver\stm32f4xx_gpio.o
                                                  STM32F4-Discovery\stm32f4_discovery_lis302dl.o
GPIO_SetBits                                      STM32F4xx_StdPeriph_Driver\stm32f4xx_gpio.o
                                                  STM32F4-Discovery\stm32f4_discovery_lis302dl.o
GPIO_StructInit                                   STM32F4xx_StdPeriph_Driver\stm32f4xx_gpio.o
GPIO_ToggleBits                                   STM32F4xx_StdPeriph_Driver\stm32f4xx_gpio.o
GPIO_Write                                        STM32F4xx_StdPeriph_Driver\stm32f4xx_gpio.o
GPIO_WriteBit                                     STM32F4xx_StdPeriph_Driver\stm32f4xx_gpio.o
                                                  STM32F4-Discovery\stm32f4_discovery_audio_codec.o
HASH_RNG_IRQHandler                               TrueSTUDIO\startup_stm32f4xx.o
HardFault_Handler                                 User\stm32f4xx_it.o
I2C1_ER_IRQHandler                                TrueSTUDIO\startup_stm32f4xx.o
I2C1_EV_IRQHandler                                TrueSTUDIO\startup_stm32f4xx.o
I2C2_ER_IRQHandler                                TrueSTUDIO\startup_stm32f4xx.o
I2C2_EV_IRQHandler                                TrueSTUDIO\startup_stm32f4xx.o
I2C3_ER_IRQHandler                                TrueSTUDIO\startup_stm32f4xx.o
I2C3_EV_IRQHandler                                TrueSTUDIO\startup_stm32f4xx.o
I2C_ARPCmd                                        STM32F4xx_StdPeriph_Driver\stm32f4xx_i2c.o
I2C_AcknowledgeConfig                             STM32F4xx_StdPeriph_Driver\stm32f4xx_i2c.o
                                                  STM32F4-Discovery\stm32f4_discovery_audio_codec.o
I2C_CalculatePEC                                  STM32F4xx_StdPeriph_Driver\stm32f4xx_i2c.o
I2C_CheckEvent                                    STM32F4xx_StdPeriph_Driver\stm32f4xx_i2c.o
                                                  STM32F4-Discovery\stm32f4_discovery_audio_codec.o
I2C_ClearFlag                                     STM32F4xx_StdPeriph_Driver\stm32f4xx_i2c.o
                                                  STM32F4-Discovery\stm32f4_discovery_audio_codec.o
I2C_ClearITPendingBit                             STM32F4xx_StdPeriph_Driver\stm32f4xx_i2c.o
I2C_Cmd                                           STM32F4xx_StdPeriph_Driver\stm32f4xx_i2c.o
                                                  STM32F4-Discovery\stm32f4_discovery_audio_codec.o
I2C_DMACmd                                        STM32F4xx_StdPeriph_Driver\stm32f4xx_i2c.o
I2C_DMALastTransferCmd                            STM32F4xx_StdPeriph_Driver\stm32f4xx_i2c.o
I2C_DeInit                                        STM32F4xx_StdPeriph_Driver\stm32f4xx_i2c.o
                                                  STM32F4-Discovery\stm32f4_discovery_audio_codec.o
I2C_DualAddressCmd                                STM32F4xx_StdPeriph_Driver\stm32f4xx_i2c.o
I2C_FastModeDutyCycleConfig                       STM32F4xx_StdPeriph_Driver\stm32f4xx_i2c.o
I2C_GeneralCallCmd                                STM32F4xx_StdPeriph_Driver\stm32f4xx_i2c.o
I2C_GenerateSTART                                 STM32F4xx_StdPeriph_Driver\stm32f4xx_i2c.o
                                                  STM32F4-Discovery\stm32f4_discovery_audio_codec.o
I2C_GenerateSTOP                                  STM32F4xx_StdPeriph_Driver\stm32f4xx_i2c.o
                                                  STM32F4-Discovery\stm32f4_discovery_audio_codec.o
I2C_GetFlagStatus                                 STM32F4xx_StdPeriph_Driver\stm32f4xx_i2c.o
                                                  STM32F4-Discovery\stm32f4_discovery_audio_codec.o
I2C_GetITStatus                                   STM32F4xx_StdPeriph_Driver\stm32f4xx_i2c.o
I2C_GetLastEvent                                  STM32F4xx_StdPeriph_Driver\stm32f4xx_i2c.o
I2C_GetPEC                                        STM32F4xx_StdPeriph_Driver\stm32f4xx_i2c.o
I2C_ITConfig                                      STM32F4xx_StdPeriph_Driver\stm32f4xx_i2c.o
I2C_Init                                          STM32F4xx_StdPeriph_Driver\stm32f4xx_i2c.o
                                                  STM32F4-Discovery\stm32f4_discovery_audio_codec.o
I2C_NACKPositionConfig                            STM32F4xx_StdPeriph_Driver\stm32f4xx_i2c.o
I2C_OwnAddress2Config                             STM32F4xx_StdPeriph_Driver\stm32f4xx_i2c.o
I2C_PECPositionConfig                             STM32F4xx_StdPeriph_Driver\stm32f4xx_i2c.o
I2C_ReadRegister                                  STM32F4xx_StdPeriph_Driver\stm32f4xx_i2c.o
I2C_ReceiveData                                   STM32F4xx_StdPeriph_Driver\stm32f4xx_i2c.o
                                                  STM32F4-Discovery\stm32f4_discovery_audio_codec.o
I2C_SMBusAlertConfig                              STM32F4xx_StdPeriph_Driver\stm32f4xx_i2c.o
I2C_Send7bitAddress                               STM32F4xx_StdPeriph_Driver\stm32f4xx_i2c.o
                                                  STM32F4-Discovery\stm32f4_discovery_audio_codec.o
I2C_SendData                                      STM32F4xx_StdPeriph_Driver\stm32f4xx_i2c.o
                                                  STM32F4-Discovery\stm32f4_discovery_audio_codec.o
I2C_SoftwareResetCmd                              STM32F4xx_StdPeriph_Driver\stm32f4xx_i2c.o
I2C_StretchClockCmd                               STM32F4xx_StdPeriph_Driver\stm32f4xx_i2c.o
I2C_StructInit                                    STM32F4xx_StdPeriph_Driver\stm32f4xx_i2c.o
I2C_TransmitPEC                                   STM32F4xx_StdPeriph_Driver\stm32f4xx_i2c.o
I2S_Cmd                                           STM32F4xx_StdPeriph_Driver\stm32f4xx_spi.o
                                                  STM32F4-Discovery\stm32f4_discovery_audio_codec.o
I2S_FullDuplexConfig                              STM32F4xx_StdPeriph_Driver\stm32f4xx_spi.o
I2S_Init                                          STM32F4xx_StdPeriph_Driver\stm32f4xx_spi.o
                                                  STM32F4-Discovery\stm32f4_discovery_audio_codec.o
I2S_StructInit                                    STM32F4xx_StdPeriph_Driver\stm32f4xx_spi.o
LED_Toggle                                        User\stm32f4xx_it.o
                                                  User\main.o
                                                  User\waveplayer.o
LIS302DLTimeout                                   STM32F4-Discovery\stm32f4_discovery_lis302dl.o
LIS302DL_DataRateCmd                              STM32F4-Discovery\stm32f4_discovery_lis302dl.o
LIS302DL_FilterConfig                             STM32F4-Discovery\stm32f4_discovery_lis302dl.o
LIS302DL_FullScaleCmd                             STM32F4-Discovery\stm32f4_discovery_lis302dl.o
LIS302DL_Init                                     STM32F4-Discovery\stm32f4_discovery_lis302dl.o
                                                  User\waveplayer.o
LIS302DL_InterruptConfig                          STM32F4-Discovery\stm32f4_discovery_lis302dl.o
                                                  User\waveplayer.o
LIS302DL_LowpowerCmd                              STM32F4-Discovery\stm32f4_discovery_lis302dl.o
LIS302DL_Read                                     STM32F4-Discovery\stm32f4_discovery_lis302dl.o
                                                  User\stm32f4xx_it.o
LIS302DL_ReadACC                                  STM32F4-Discovery\stm32f4_discovery_lis302dl.o
LIS302DL_RebootCmd                                STM32F4-Discovery\stm32f4_discovery_lis302dl.o
LIS302DL_TIMEOUT_UserCallback                     User\waveplayer.o
                                                  STM32F4-Discovery\stm32f4_discovery_lis302dl.o
LIS302DL_Write                                    STM32F4-Discovery\stm32f4_discovery_lis302dl.o
                                                  User\waveplayer.o
MemManage_Handler                                 User\stm32f4xx_it.o
NMI_Handler                                       User\stm32f4xx_it.o
NVIC_Init                                         STM32F4xx_StdPeriph_Driver\misc.o
                                                  STM32F4-Discovery\stm32f4_discovery.o
                                                  STM32F4-Discovery\stm32f4_discovery_audio_codec.o
                                                  User\main.o
                                                  User\waveplayer.o
NVIC_InitStructure                                STM32F4-Discovery\stm32f4_discovery.o
NVIC_PriorityGroupConfig                          STM32F4xx_StdPeriph_Driver\misc.o
                                                  User\main.o
                                                  User\waveplayer.o
NVIC_SetVectorTable                               STM32F4xx_StdPeriph_Driver\misc.o
NVIC_SystemLPConfig                               STM32F4xx_StdPeriph_Driver\misc.o
OTG_FS_IRQHandler                                 TrueSTUDIO\startup_stm32f4xx.o
OTG_FS_WKUP_IRQHandler                            TrueSTUDIO\startup_stm32f4xx.o
OTG_HS_EP1_IN_IRQHandler                          TrueSTUDIO\startup_stm32f4xx.o
OTG_HS_EP1_OUT_IRQHandler                         TrueSTUDIO\startup_stm32f4xx.o
OTG_HS_IRQHandler                                 TrueSTUDIO\startup_stm32f4xx.o
OTG_HS_WKUP_IRQHandler                            TrueSTUDIO\startup_stm32f4xx.o
OutputDev                                         STM32F4-Discovery\stm32f4_discovery_audio_codec.o
PVD_IRQHandler                                    TrueSTUDIO\startup_stm32f4xx.o
PauseResumeStatus                                 User\stm32f4xx_it.o
                                                  User\waveplayer.o
PendSV_Handler                                    User\stm32f4xx_it.o
RCC_AHB1PeriphClockCmd                            STM32F4xx_StdPeriph_Driver\stm32f4xx_rcc.o
                                                  STM32F4-Discovery\stm32f4_discovery.o
                                                  STM32F4-Discovery\stm32f4_discovery_audio_codec.o
                                                  STM32F4-Discovery\stm32f4_discovery_lis302dl.o
                                                  User\waveplayer.o
RCC_AHB1PeriphClockLPModeCmd                      STM32F4xx_StdPeriph_Driver\stm32f4xx_rcc.o
RCC_AHB1PeriphResetCmd                            STM32F4xx_StdPeriph_Driver\stm32f4xx_rcc.o
                                                  STM32F4xx_StdPeriph_Driver\stm32f4xx_gpio.o
RCC_AHB2PeriphClockCmd                            STM32F4xx_StdPeriph_Driver\stm32f4xx_rcc.o
RCC_AHB2PeriphClockLPModeCmd                      STM32F4xx_StdPeriph_Driver\stm32f4xx_rcc.o
RCC_AHB2PeriphResetCmd                            STM32F4xx_StdPeriph_Driver\stm32f4xx_rcc.o
RCC_AHB3PeriphClockCmd                            STM32F4xx_StdPeriph_Driver\stm32f4xx_rcc.o
RCC_AHB3PeriphClockLPModeCmd                      STM32F4xx_StdPeriph_Driver\stm32f4xx_rcc.o
RCC_AHB3PeriphResetCmd                            STM32F4xx_StdPeriph_Driver\stm32f4xx_rcc.o
RCC_APB1PeriphClockCmd                            STM32F4xx_StdPeriph_Driver\stm32f4xx_rcc.o
                                                  STM32F4-Discovery\stm32f4_discovery_audio_codec.o
                                                  User\main.o
RCC_APB1PeriphClockLPModeCmd                      STM32F4xx_StdPeriph_Driver\stm32f4xx_rcc.o
RCC_APB1PeriphResetCmd                            STM32F4xx_StdPeriph_Driver\stm32f4xx_rcc.o
                                                  STM32F4xx_StdPeriph_Driver\stm32f4xx_dac.o
                                                  STM32F4xx_StdPeriph_Driver\stm32f4xx_i2c.o
                                                  STM32F4xx_StdPeriph_Driver\stm32f4xx_spi.o
                                                  STM32F4xx_StdPeriph_Driver\stm32f4xx_tim.o
RCC_APB2PeriphClockCmd                            STM32F4xx_StdPeriph_Driver\stm32f4xx_rcc.o
                                                  STM32F4-Discovery\stm32f4_discovery.o
                                                  STM32F4-Discovery\stm32f4_discovery_lis302dl.o
                                                  User\waveplayer.o
RCC_APB2PeriphClockLPModeCmd                      STM32F4xx_StdPeriph_Driver\stm32f4xx_rcc.o
RCC_APB2PeriphResetCmd                            STM32F4xx_StdPeriph_Driver\stm32f4xx_rcc.o
                                                  STM32F4xx_StdPeriph_Driver\stm32f4xx_adc.o
                                                  STM32F4xx_StdPeriph_Driver\stm32f4xx_spi.o
                                                  STM32F4xx_StdPeriph_Driver\stm32f4xx_syscfg.o
                                                  STM32F4xx_StdPeriph_Driver\stm32f4xx_tim.o
RCC_AdjustHSICalibrationValue                     STM32F4xx_StdPeriph_Driver\stm32f4xx_rcc.o
RCC_BackupResetCmd                                STM32F4xx_StdPeriph_Driver\stm32f4xx_rcc.o
RCC_ClearFlag                                     STM32F4xx_StdPeriph_Driver\stm32f4xx_rcc.o
RCC_ClearITPendingBit                             STM32F4xx_StdPeriph_Driver\stm32f4xx_rcc.o
RCC_ClockSecuritySystemCmd                        STM32F4xx_StdPeriph_Driver\stm32f4xx_rcc.o
RCC_Clocks                                        User\main.o
RCC_DeInit                                        STM32F4xx_StdPeriph_Driver\stm32f4xx_rcc.o
RCC_GetClocksFreq                                 STM32F4xx_StdPeriph_Driver\stm32f4xx_rcc.o
                                                  STM32F4xx_StdPeriph_Driver\stm32f4xx_i2c.o
                                                  User\main.o
RCC_GetFlagStatus                                 STM32F4xx_StdPeriph_Driver\stm32f4xx_rcc.o
RCC_GetITStatus                                   STM32F4xx_StdPeriph_Driver\stm32f4xx_rcc.o
RCC_GetSYSCLKSource                               STM32F4xx_StdPeriph_Driver\stm32f4xx_rcc.o
RCC_HCLKConfig                                    STM32F4xx_StdPeriph_Driver\stm32f4xx_rcc.o
RCC_HSEConfig                                     STM32F4xx_StdPeriph_Driver\stm32f4xx_rcc.o
RCC_HSICmd                                        STM32F4xx_StdPeriph_Driver\stm32f4xx_rcc.o
RCC_I2SCLKConfig                                  STM32F4xx_StdPeriph_Driver\stm32f4xx_rcc.o
RCC_IRQHandler                                    TrueSTUDIO\startup_stm32f4xx.o
RCC_ITConfig                                      STM32F4xx_StdPeriph_Driver\stm32f4xx_rcc.o
RCC_LSEConfig                                     STM32F4xx_StdPeriph_Driver\stm32f4xx_rcc.o
RCC_LSICmd                                        STM32F4xx_StdPeriph_Driver\stm32f4xx_rcc.o
RCC_MCO1Config                                    STM32F4xx_StdPeriph_Driver\stm32f4xx_rcc.o
RCC_MCO2Config                                    STM32F4xx_StdPeriph_Driver\stm32f4xx_rcc.o
RCC_PCLK1Config                                   STM32F4xx_StdPeriph_Driver\stm32f4xx_rcc.o
RCC_PCLK2Config                                   STM32F4xx_StdPeriph_Driver\stm32f4xx_rcc.o
RCC_PLLCmd                                        STM32F4xx_StdPeriph_Driver\stm32f4xx_rcc.o
RCC_PLLConfig                                     STM32F4xx_StdPeriph_Driver\stm32f4xx_rcc.o
RCC_PLLI2SCmd                                     STM32F4xx_StdPeriph_Driver\stm32f4xx_rcc.o
RCC_PLLI2SConfig                                  STM32F4xx_StdPeriph_Driver\stm32f4xx_rcc.o
RCC_RTCCLKCmd                                     STM32F4xx_StdPeriph_Driver\stm32f4xx_rcc.o
RCC_RTCCLKConfig                                  STM32F4xx_StdPeriph_Driver\stm32f4xx_rcc.o
RCC_SYSCLKConfig                                  STM32F4xx_StdPeriph_Driver\stm32f4xx_rcc.o
RCC_WaitForHSEStartUp                             STM32F4xx_StdPeriph_Driver\stm32f4xx_rcc.o
RTC_Alarm_IRQHandler                              TrueSTUDIO\startup_stm32f4xx.o
RTC_WKUP_IRQHandler                               TrueSTUDIO\startup_stm32f4xx.o
RepeatState                                       User\main.o
                                                  User\waveplayer.o
Reset_Handler                                     TrueSTUDIO\startup_stm32f4xx.o
SDIO_IRQHandler                                   TrueSTUDIO\startup_stm32f4xx.o
SPI1_IRQHandler                                   TrueSTUDIO\startup_stm32f4xx.o
SPI2_IRQHandler                                   TrueSTUDIO\startup_stm32f4xx.o
SPI3_IRQHandler                                   STM32F4-Discovery\stm32f4_discovery_audio_codec.o
                                                  TrueSTUDIO\startup_stm32f4xx.o
SPI_BiDirectionalLineConfig                       STM32F4xx_StdPeriph_Driver\stm32f4xx_spi.o
SPI_CalculateCRC                                  STM32F4xx_StdPeriph_Driver\stm32f4xx_spi.o
SPI_Cmd                                           STM32F4xx_StdPeriph_Driver\stm32f4xx_spi.o
                                                  STM32F4-Discovery\stm32f4_discovery_lis302dl.o
SPI_DataSizeConfig                                STM32F4xx_StdPeriph_Driver\stm32f4xx_spi.o
SPI_GetCRC                                        STM32F4xx_StdPeriph_Driver\stm32f4xx_spi.o
SPI_GetCRCPolynomial                              STM32F4xx_StdPeriph_Driver\stm32f4xx_spi.o
SPI_I2S_ClearFlag                                 STM32F4xx_StdPeriph_Driver\stm32f4xx_spi.o
SPI_I2S_ClearITPendingBit                         STM32F4xx_StdPeriph_Driver\stm32f4xx_spi.o
SPI_I2S_DMACmd                                    STM32F4xx_StdPeriph_Driver\stm32f4xx_spi.o
                                                  STM32F4-Discovery\stm32f4_discovery_audio_codec.o
SPI_I2S_DeInit                                    STM32F4xx_StdPeriph_Driver\stm32f4xx_spi.o
                                                  STM32F4-Discovery\stm32f4_discovery_audio_codec.o
                                                  STM32F4-Discovery\stm32f4_discovery_lis302dl.o
SPI_I2S_GetFlagStatus                             STM32F4xx_StdPeriph_Driver\stm32f4xx_spi.o
                                                  STM32F4-Discovery\stm32f4_discovery_audio_codec.o
                                                  STM32F4-Discovery\stm32f4_discovery_lis302dl.o
SPI_I2S_GetITStatus                               STM32F4xx_StdPeriph_Driver\stm32f4xx_spi.o
SPI_I2S_ITConfig                                  STM32F4xx_StdPeriph_Driver\stm32f4xx_spi.o
                                                  STM32F4-Discovery\stm32f4_discovery_audio_codec.o
SPI_I2S_ReceiveData                               STM32F4xx_StdPeriph_Driver\stm32f4xx_spi.o
                                                  STM32F4-Discovery\stm32f4_discovery_lis302dl.o
SPI_I2S_SendData                                  STM32F4xx_StdPeriph_Driver\stm32f4xx_spi.o
                                                  STM32F4-Discovery\stm32f4_discovery_audio_codec.o
                                                  STM32F4-Discovery\stm32f4_discovery_lis302dl.o
SPI_Init                                          STM32F4xx_StdPeriph_Driver\stm32f4xx_spi.o
                                                  STM32F4-Discovery\stm32f4_discovery_lis302dl.o
SPI_NSSInternalSoftwareConfig                     STM32F4xx_StdPeriph_Driver\stm32f4xx_spi.o
SPI_SSOutputCmd                                   STM32F4xx_StdPeriph_Driver\stm32f4xx_spi.o
SPI_StructInit                                    STM32F4xx_StdPeriph_Driver\stm32f4xx_spi.o
SPI_TIModeCmd                                     STM32F4xx_StdPeriph_Driver\stm32f4xx_spi.o
SPI_TransmitCRC                                   STM32F4xx_StdPeriph_Driver\stm32f4xx_spi.o
STM_EVAL_LEDInit                                  STM32F4-Discovery\stm32f4_discovery.o
                                                  User\main.o
STM_EVAL_LEDOff                                   STM32F4-Discovery\stm32f4_discovery.o
                                                  User\stm32f4xx_it.o
STM_EVAL_LEDOn                                    STM32F4-Discovery\stm32f4_discovery.o
                                                  User\main.o
                                                  User\stm32f4xx_it.o
STM_EVAL_LEDToggle                                STM32F4-Discovery\stm32f4_discovery.o
                                                  User\stm32f4xx_it.o
STM_EVAL_PBGetState                               STM32F4-Discovery\stm32f4_discovery.o
STM_EVAL_PBInit                                   STM32F4-Discovery\stm32f4_discovery.o
SVC_Handler                                       User\stm32f4xx_it.o
SYSCFG_CompensationCellCmd                        STM32F4xx_StdPeriph_Driver\stm32f4xx_syscfg.o
SYSCFG_DeInit                                     STM32F4xx_StdPeriph_Driver\stm32f4xx_syscfg.o
SYSCFG_ETH_MediaInterfaceConfig                   STM32F4xx_StdPeriph_Driver\stm32f4xx_syscfg.o
SYSCFG_EXTILineConfig                             STM32F4xx_StdPeriph_Driver\stm32f4xx_syscfg.o
                                                  STM32F4-Discovery\stm32f4_discovery.o
                                                  User\waveplayer.o
SYSCFG_GetCompensationCellStatus                  STM32F4xx_StdPeriph_Driver\stm32f4xx_syscfg.o
SYSCFG_MemoryRemapConfig                          STM32F4xx_StdPeriph_Driver\stm32f4xx_syscfg.o
SysTick_CLKSourceConfig                           STM32F4xx_StdPeriph_Driver\misc.o
SysTick_Handler                                   User\stm32f4xx_it.o
SystemCoreClock                                   User\system_stm32f4xx.o
                                                  User\main.o
SystemCoreClockUpdate                             User\system_stm32f4xx.o
SystemInit                                        User\system_stm32f4xx.o
                                                  TrueSTUDIO\startup_stm32f4xx.o
TAMP_STAMP_IRQHandler                             TrueSTUDIO\startup_stm32f4xx.o
TIM1_BRK_TIM9_IRQHandler                          TrueSTUDIO\startup_stm32f4xx.o
TIM1_CC_IRQHandler                                TrueSTUDIO\startup_stm32f4xx.o
TIM1_TRG_COM_TIM11_IRQHandler                     TrueSTUDIO\startup_stm32f4xx.o
TIM1_UP_TIM10_IRQHandler                          TrueSTUDIO\startup_stm32f4xx.o
TIM2_IRQHandler                                   TrueSTUDIO\startup_stm32f4xx.o
TIM3_IRQHandler                                   TrueSTUDIO\startup_stm32f4xx.o
TIM4_IRQHandler                                   User\stm32f4xx_it.o
TIM5_IRQHandler                                   TrueSTUDIO\startup_stm32f4xx.o
TIM6_DAC_IRQHandler                               TrueSTUDIO\startup_stm32f4xx.o
TIM7_IRQHandler                                   TrueSTUDIO\startup_stm32f4xx.o
TIM8_BRK_TIM12_IRQHandler                         TrueSTUDIO\startup_stm32f4xx.o
TIM8_CC_IRQHandler                                TrueSTUDIO\startup_stm32f4xx.o
TIM8_TRG_COM_TIM14_IRQHandler                     TrueSTUDIO\startup_stm32f4xx.o
TIM8_UP_TIM13_IRQHandler                          TrueSTUDIO\startup_stm32f4xx.o
TIM_ARRPreloadConfig                              STM32F4xx_StdPeriph_Driver\stm32f4xx_tim.o
                                                  User\main.o
TIM_BDTRConfig                                    STM32F4xx_StdPeriph_Driver\stm32f4xx_tim.o
TIM_BDTRStructInit                                STM32F4xx_StdPeriph_Driver\stm32f4xx_tim.o
TIM_CCPreloadControl                              STM32F4xx_StdPeriph_Driver\stm32f4xx_tim.o
TIM_CCxCmd                                        STM32F4xx_StdPeriph_Driver\stm32f4xx_tim.o
TIM_CCxNCmd                                       STM32F4xx_StdPeriph_Driver\stm32f4xx_tim.o
TIM_ClearFlag                                     STM32F4xx_StdPeriph_Driver\stm32f4xx_tim.o
TIM_ClearITPendingBit                             STM32F4xx_StdPeriph_Driver\stm32f4xx_tim.o
                                                  User\stm32f4xx_it.o
TIM_ClearOC1Ref                                   STM32F4xx_StdPeriph_Driver\stm32f4xx_tim.o
TIM_ClearOC2Ref                                   STM32F4xx_StdPeriph_Driver\stm32f4xx_tim.o
TIM_ClearOC3Ref                                   STM32F4xx_StdPeriph_Driver\stm32f4xx_tim.o
TIM_ClearOC4Ref                                   STM32F4xx_StdPeriph_Driver\stm32f4xx_tim.o
TIM_Cmd                                           STM32F4xx_StdPeriph_Driver\stm32f4xx_tim.o
                                                  User\main.o
TIM_CounterModeConfig                             STM32F4xx_StdPeriph_Driver\stm32f4xx_tim.o
TIM_CtrlPWMOutputs                                STM32F4xx_StdPeriph_Driver\stm32f4xx_tim.o
TIM_DMACmd                                        STM32F4xx_StdPeriph_Driver\stm32f4xx_tim.o
TIM_DMAConfig                                     STM32F4xx_StdPeriph_Driver\stm32f4xx_tim.o
TIM_DeInit                                        STM32F4xx_StdPeriph_Driver\stm32f4xx_tim.o
TIM_ETRClockMode1Config                           STM32F4xx_StdPeriph_Driver\stm32f4xx_tim.o
TIM_ETRClockMode2Config                           STM32F4xx_StdPeriph_Driver\stm32f4xx_tim.o
TIM_ETRConfig                                     STM32F4xx_StdPeriph_Driver\stm32f4xx_tim.o
TIM_EncoderInterfaceConfig                        STM32F4xx_StdPeriph_Driver\stm32f4xx_tim.o
TIM_ForcedOC1Config                               STM32F4xx_StdPeriph_Driver\stm32f4xx_tim.o
TIM_ForcedOC2Config                               STM32F4xx_StdPeriph_Driver\stm32f4xx_tim.o
TIM_ForcedOC3Config                               STM32F4xx_StdPeriph_Driver\stm32f4xx_tim.o
TIM_ForcedOC4Config                               STM32F4xx_StdPeriph_Driver\stm32f4xx_tim.o
TIM_GenerateEvent                                 STM32F4xx_StdPeriph_Driver\stm32f4xx_tim.o
TIM_GetCapture1                                   STM32F4xx_StdPeriph_Driver\stm32f4xx_tim.o
                                                  User\stm32f4xx_it.o
TIM_GetCapture2                                   STM32F4xx_StdPeriph_Driver\stm32f4xx_tim.o
TIM_GetCapture3                                   STM32F4xx_StdPeriph_Driver\stm32f4xx_tim.o
TIM_GetCapture4                                   STM32F4xx_StdPeriph_Driver\stm32f4xx_tim.o
TIM_GetCounter                                    STM32F4xx_StdPeriph_Driver\stm32f4xx_tim.o
TIM_GetFlagStatus                                 STM32F4xx_StdPeriph_Driver\stm32f4xx_tim.o
TIM_GetITStatus                                   STM32F4xx_StdPeriph_Driver\stm32f4xx_tim.o
                                                  User\stm32f4xx_it.o
TIM_GetPrescaler                                  STM32F4xx_StdPeriph_Driver\stm32f4xx_tim.o
TIM_ICInit                                        STM32F4xx_StdPeriph_Driver\stm32f4xx_tim.o
TIM_ICStructInit                                  STM32F4xx_StdPeriph_Driver\stm32f4xx_tim.o
TIM_ITConfig                                      STM32F4xx_StdPeriph_Driver\stm32f4xx_tim.o
                                                  User\main.o
TIM_ITRxExternalClockConfig                       STM32F4xx_StdPeriph_Driver\stm32f4xx_tim.o
TIM_InternalClockConfig                           STM32F4xx_StdPeriph_Driver\stm32f4xx_tim.o
TIM_OC1FastConfig                                 STM32F4xx_StdPeriph_Driver\stm32f4xx_tim.o
TIM_OC1Init                                       STM32F4xx_StdPeriph_Driver\stm32f4xx_tim.o
                                                  User\main.o
TIM_OC1NPolarityConfig                            STM32F4xx_StdPeriph_Driver\stm32f4xx_tim.o
TIM_OC1PolarityConfig                             STM32F4xx_StdPeriph_Driver\stm32f4xx_tim.o
TIM_OC1PreloadConfig                              STM32F4xx_StdPeriph_Driver\stm32f4xx_tim.o
                                                  User\main.o
TIM_OC2FastConfig                                 STM32F4xx_StdPeriph_Driver\stm32f4xx_tim.o
TIM_OC2Init                                       STM32F4xx_StdPeriph_Driver\stm32f4xx_tim.o
TIM_OC2NPolarityConfig                            STM32F4xx_StdPeriph_Driver\stm32f4xx_tim.o
TIM_OC2PolarityConfig                             STM32F4xx_StdPeriph_Driver\stm32f4xx_tim.o
TIM_OC2PreloadConfig                              STM32F4xx_StdPeriph_Driver\stm32f4xx_tim.o
TIM_OC3FastConfig                                 STM32F4xx_StdPeriph_Driver\stm32f4xx_tim.o
TIM_OC3Init                                       STM32F4xx_StdPeriph_Driver\stm32f4xx_tim.o
TIM_OC3NPolarityConfig                            STM32F4xx_StdPeriph_Driver\stm32f4xx_tim.o
TIM_OC3PolarityConfig                             STM32F4xx_StdPeriph_Driver\stm32f4xx_tim.o
TIM_OC3PreloadConfig                              STM32F4xx_StdPeriph_Driver\stm32f4xx_tim.o
TIM_OC4FastConfig                                 STM32F4xx_StdPeriph_Driver\stm32f4xx_tim.o
TIM_OC4Init                                       STM32F4xx_StdPeriph_Driver\stm32f4xx_tim.o
TIM_OC4PolarityConfig                             STM32F4xx_StdPeriph_Driver\stm32f4xx_tim.o
TIM_OC4PreloadConfig                              STM32F4xx_StdPeriph_Driver\stm32f4xx_tim.o
TIM_OCStructInit                                  STM32F4xx_StdPeriph_Driver\stm32f4xx_tim.o
TIM_PWMIConfig                                    STM32F4xx_StdPeriph_Driver\stm32f4xx_tim.o
TIM_PrescalerConfig                               STM32F4xx_StdPeriph_Driver\stm32f4xx_tim.o
TIM_RemapConfig                                   STM32F4xx_StdPeriph_Driver\stm32f4xx_tim.o
TIM_SelectCCDMA                                   STM32F4xx_StdPeriph_Driver\stm32f4xx_tim.o
TIM_SelectCOM                                     STM32F4xx_StdPeriph_Driver\stm32f4xx_tim.o
TIM_SelectHallSensor                              STM32F4xx_StdPeriph_Driver\stm32f4xx_tim.o
TIM_SelectInputTrigger                            STM32F4xx_StdPeriph_Driver\stm32f4xx_tim.o
TIM_SelectMasterSlaveMode                         STM32F4xx_StdPeriph_Driver\stm32f4xx_tim.o
TIM_SelectOCxM                                    STM32F4xx_StdPeriph_Driver\stm32f4xx_tim.o
TIM_SelectOnePulseMode                            STM32F4xx_StdPeriph_Driver\stm32f4xx_tim.o
TIM_SelectOutputTrigger                           STM32F4xx_StdPeriph_Driver\stm32f4xx_tim.o
TIM_SelectSlaveMode                               STM32F4xx_StdPeriph_Driver\stm32f4xx_tim.o
TIM_SetAutoreload                                 STM32F4xx_StdPeriph_Driver\stm32f4xx_tim.o
TIM_SetClockDivision                              STM32F4xx_StdPeriph_Driver\stm32f4xx_tim.o
TIM_SetCompare1                                   STM32F4xx_StdPeriph_Driver\stm32f4xx_tim.o
                                                  User\stm32f4xx_it.o
TIM_SetCompare2                                   STM32F4xx_StdPeriph_Driver\stm32f4xx_tim.o
TIM_SetCompare3                                   STM32F4xx_StdPeriph_Driver\stm32f4xx_tim.o
TIM_SetCompare4                                   STM32F4xx_StdPeriph_Driver\stm32f4xx_tim.o
TIM_SetCounter                                    STM32F4xx_StdPeriph_Driver\stm32f4xx_tim.o
TIM_SetIC1Prescaler                               STM32F4xx_StdPeriph_Driver\stm32f4xx_tim.o
TIM_SetIC2Prescaler                               STM32F4xx_StdPeriph_Driver\stm32f4xx_tim.o
TIM_SetIC3Prescaler                               STM32F4xx_StdPeriph_Driver\stm32f4xx_tim.o
TIM_SetIC4Prescaler                               STM32F4xx_StdPeriph_Driver\stm32f4xx_tim.o
TIM_TIxExternalClockConfig                        STM32F4xx_StdPeriph_Driver\stm32f4xx_tim.o
TIM_TimeBaseInit                                  STM32F4xx_StdPeriph_Driver\stm32f4xx_tim.o
                                                  User\main.o
TIM_TimeBaseStructInit                            STM32F4xx_StdPeriph_Driver\stm32f4xx_tim.o
TIM_UpdateDisableConfig                           STM32F4xx_StdPeriph_Driver\stm32f4xx_tim.o
TIM_UpdateRequestConfig                           STM32F4xx_StdPeriph_Driver\stm32f4xx_tim.o
TimingDelay_Decrement                             User\waveplayer.o
                                                  User\stm32f4xx_it.o
UART4_IRQHandler                                  TrueSTUDIO\startup_stm32f4xx.o
UART5_IRQHandler                                  TrueSTUDIO\startup_stm32f4xx.o
USART1_IRQHandler                                 TrueSTUDIO\startup_stm32f4xx.o
USART2_IRQHandler                                 TrueSTUDIO\startup_stm32f4xx.o
USART3_IRQHandler                                 TrueSTUDIO\startup_stm32f4xx.o
USART6_IRQHandler                                 TrueSTUDIO\startup_stm32f4xx.o
UsageFault_Handler                                User\stm32f4xx_it.o
WWDG_IRQHandler                                   TrueSTUDIO\startup_stm32f4xx.o
WaveCounter                                       User\waveplayer.o
WaveDataLength                                    User\waveplayer.o
WavePlayBack                                      User\waveplayer.o
                                                  User\main.o
WavePlayerInit                                    User\waveplayer.o
WavePlayerPauseResume                             User\waveplayer.o
WavePlayerStop                                    User\waveplayer.o
WaveplayerCtrlVolume                              User\waveplayer.o
XferCplt                                          User\waveplayer.o
_Jv_RegisterClasses                               c:/program files/atollic/truestudio for stmicroelectronics stm32 lite 2.2.0/armtools/bin/../lib/gcc/arm-atollic-eabi/4.5.1/thumb/thumb2/crtbegin.o
__dso_handle                                      c:/program files/atollic/truestudio for stmicroelectronics stm32 lite 2.2.0/armtools/bin/../lib/gcc/arm-atollic-eabi/4.5.1/thumb/thumb2/crtbegin.o
__init_array_end                                  c:/program files/atollic/truestudio for stmicroelectronics stm32 lite 2.2.0/armtools/bin/../lib/gcc/arm-atollic-eabi/4.5.1/../../../../arm-atollic-eabi/lib/thumb/thumb2\libc.a(lib_a-init.o)
__init_array_start                                c:/program files/atollic/truestudio for stmicroelectronics stm32 lite 2.2.0/armtools/bin/../lib/gcc/arm-atollic-eabi/4.5.1/../../../../arm-atollic-eabi/lib/thumb/thumb2\libc.a(lib_a-init.o)
__libc_init_array                                 c:/program files/atollic/truestudio for stmicroelectronics stm32 lite 2.2.0/armtools/bin/../lib/gcc/arm-atollic-eabi/4.5.1/../../../../arm-atollic-eabi/lib/thumb/thumb2\libc.a(lib_a-init.o)
                                                  TrueSTUDIO\startup_stm32f4xx.o
__preinit_array_end                               c:/program files/atollic/truestudio for stmicroelectronics stm32 lite 2.2.0/armtools/bin/../lib/gcc/arm-atollic-eabi/4.5.1/../../../../arm-atollic-eabi/lib/thumb/thumb2\libc.a(lib_a-init.o)
__preinit_array_start                             c:/program files/atollic/truestudio for stmicroelectronics stm32 lite 2.2.0/armtools/bin/../lib/gcc/arm-atollic-eabi/4.5.1/../../../../arm-atollic-eabi/lib/thumb/thumb2\libc.a(lib_a-init.o)
_ebss                                             TrueSTUDIO\startup_stm32f4xx.o
_edata                                            TrueSTUDIO\startup_stm32f4xx.o
_estack                                           TrueSTUDIO\startup_stm32f4xx.o
_fini                                             c:/program files/atollic/truestudio for stmicroelectronics stm32 lite 2.2.0/armtools/bin/../lib/gcc/arm-atollic-eabi/4.5.1/thumb/thumb2/crti.o
_init                                             c:/program files/atollic/truestudio for stmicroelectronics stm32 lite 2.2.0/armtools/bin/../lib/gcc/arm-atollic-eabi/4.5.1/thumb/thumb2/crti.o
                                                  c:/program files/atollic/truestudio for stmicroelectronics stm32 lite 2.2.0/armtools/bin/../lib/gcc/arm-atollic-eabi/4.5.1/../../../../arm-atollic-eabi/lib/thumb/thumb2\libc.a(lib_a-init.o)
_sbss                                             TrueSTUDIO\startup_stm32f4xx.o
_sdata                                            TrueSTUDIO\startup_stm32f4xx.o
_sidata                                           TrueSTUDIO\startup_stm32f4xx.o
capture                                           User\stm32f4xx_it.o
g_pfnVectors                                      TrueSTUDIO\startup_stm32f4xx.o
main                                              User\main.o
                                                  TrueSTUDIO\startup_stm32f4xx.o
volume                                            User\waveplayer.o
