ARM Linker, 4.1 [Build 567] [Evaluation]

==============================================================================

Section Cross References

    arm_fft_bin_example_f32.o(.text) refers to arm_cfft_radix4_init_f32.o(.text) for arm_cfft_radix4_init_f32
    arm_fft_bin_example_f32.o(.text) refers to arm_cfft_radix4_f32.o(.text) for arm_cfft_radix4_f32
    arm_fft_bin_example_f32.o(.text) refers to arm_cmplx_mag_f32.o(.text) for arm_cmplx_mag_f32
    arm_fft_bin_example_f32.o(.text) refers to arm_max_f32.o(.text) for arm_max_f32
    arm_fft_bin_example_f32.o(.text) refers to arm_fft_bin_example_f32.o(.data) for .data
    arm_fft_bin_example_f32.o(.text) refers to arm_fft_bin_data.o(.data) for testInput_f32_10khz
    arm_fft_bin_example_f32.o(.text) refers to arm_fft_bin_example_f32.o(.bss) for .bss
    system_armcm4.o(.text) refers to system_armcm4.o(.data) for .data
    startup_armcm4.o(STACK) refers (Special) to heapauxi.o(.text) for __use_two_region_memory
    startup_armcm4.o(HEAP) refers (Special) to heapauxi.o(.text) for __use_two_region_memory
    startup_armcm4.o(RESET) refers (Special) to heapauxi.o(.text) for __use_two_region_memory
    startup_armcm4.o(RESET) refers to startup_armcm4.o(STACK) for __initial_sp
    startup_armcm4.o(RESET) refers to startup_armcm4.o(.text) for Reset_Handler
    startup_armcm4.o(.text) refers (Special) to heapauxi.o(.text) for __use_two_region_memory
    startup_armcm4.o(.text) refers to system_armcm4.o(.text) for SystemInit
    startup_armcm4.o(.text) refers to __main.o(!!!main) for __main
    startup_armcm4.o(.text) refers to startup_armcm4.o(HEAP) for Heap_Mem
    startup_armcm4.o(.text) refers to startup_armcm4.o(STACK) for Stack_Mem
==============================================================================

Removing Unused input sections from the image.

    Removing arm_fft_bin_data.o(.emb_text), (8 bytes).
    Removing arm_fft_bin_example_f32.o(.emb_text), (8 bytes).
    Removing system_armcm4.o(.emb_text), (8 bytes).
    Removing arm_cmplx_mag_f32.o(.emb_text), (8 bytes).
    Removing arm_cfft_radix4_f32.o(.emb_text), (8 bytes).
    Removing arm_cfft_radix4_init_f32.o(.emb_text), (8 bytes).
    Removing arm_max_f32.o(.emb_text), (8 bytes).
    Removing arm_common_tables.o(.emb_text), (8 bytes).
    Removing arm_common_tables.o(.constdata), (128 bytes).
    Removing arm_common_tables.o(.constdata), (256 bytes).

10 unused section(s) (total 448 bytes) removed from the image.

==============================================================================

Image Symbol Table

    Local Symbols

    Symbol Name                              Value     Ov Type        Size  Object(Section)

    RESET                                    0x00000000   Section       68  startup_armcm4.o(RESET)
    ../../angel/boardlib.s                   0x00000000   Number         0  boardinit2.o ABSOLUTE
    ../../angel/boardlib.s                   0x00000000   Number         0  boardinit1.o ABSOLUTE
    ../../angel/boardlib.s                   0x00000000   Number         0  boardshut.o ABSOLUTE
    ../../angel/boardlib.s                   0x00000000   Number         0  boardinit3.o ABSOLUTE
    ../../angel/dczerorl2.s                  0x00000000   Number         0  __dczerorl2.o ABSOLUTE
    ../../angel/handlers.s                   0x00000000   Number         0  __scatter_zi.o ABSOLUTE
    ../../angel/kernel.s                     0x00000000   Number         0  rtentry.o ABSOLUTE
    ../../angel/kernel.s                     0x00000000   Number         0  rtexit.o ABSOLUTE
    ../../angel/kernel.s                     0x00000000   Number         0  rtexit2.o ABSOLUTE
    ../../angel/kernel.s                     0x00000000   Number         0  rtentry4.o ABSOLUTE
    ../../angel/kernel.s                     0x00000000   Number         0  rtentry2.o ABSOLUTE
    ../../angel/rt.s                         0x00000000   Number         0  rt_raise.o ABSOLUTE
    ../../angel/scatter.s                    0x00000000   Number         0  __scatter.o ABSOLUTE
    ../../angel/startup.s                    0x00000000   Number         0  __main.o ABSOLUTE
    ../../angel/sys.s                        0x00000000   Number         0  sys_stackheap_outer.o ABSOLUTE
    ../../angel/sys.s                        0x00000000   Number         0  use_no_semi.o ABSOLUTE
    ../../angel/sys.s                        0x00000000   Number         0  libspace.o ABSOLUTE
    ../../angel/sysapp.c                     0x00000000   Number         0  sys_command.o ABSOLUTE
    ../../angel/sysapp.c                     0x00000000   Number         0  sys_exit.o ABSOLUTE
    ../../angel/sysapp.c                     0x00000000   Number         0  sys_wrch.o ABSOLUTE
    ../../armsys.c                           0x00000000   Number         0  _get_argv_nomalloc.o ABSOLUTE
    ../../armsys.c                           0x00000000   Number         0  no_argv.o ABSOLUTE
    ../../armsys.c                           0x00000000   Number         0  argv_veneer.o ABSOLUTE
    ../../armsys.c                           0x00000000   Number         0  argv_veneer.o ABSOLUTE
    ../../fpinit.s                           0x00000000   Number         0  fpinit.o ABSOLUTE
    ../../heapalloc.c                        0x00000000   Number         0  hrguard.o ABSOLUTE
    ../../heapaux.c                          0x00000000   Number         0  heapauxi.o ABSOLUTE
    ../../libinit.s                          0x00000000   Number         0  libshutdown.o ABSOLUTE
    ../../libinit.s                          0x00000000   Number         0  libinit2.o ABSOLUTE
    ../../libinit.s                          0x00000000   Number         0  libshutdown2.o ABSOLUTE
    ../../libinit.s                          0x00000000   Number         0  libinit.o ABSOLUTE
    ../../signal.c                           0x00000000   Number         0  defsig_exit.o ABSOLUTE
    ../../signal.c                           0x00000000   Number         0  defsig_general.o ABSOLUTE
    ../../signal.c                           0x00000000   Number         0  defsig_rtmem_inner.o ABSOLUTE
    ../../signal.c                           0x00000000   Number         0  defsig_rtmem_formal.o ABSOLUTE
    ../../signal.c                           0x00000000   Number         0  defsig_other.o ABSOLUTE
    ../../signal.c                           0x00000000   Number         0  defsig_segv_inner.o ABSOLUTE
    ../../signal.c                           0x00000000   Number         0  defsig_rtmem_outer.o ABSOLUTE
    ../../signal.c                           0x00000000   Number         0  defsig_cppl_inner.o ABSOLUTE
    ../../signal.c                           0x00000000   Number         0  defsig_pvfn_inner.o ABSOLUTE
    ../../signal.c                           0x00000000   Number         0  defsig_stak_inner.o ABSOLUTE
    ../../signal.c                           0x00000000   Number         0  __raise.o ABSOLUTE
    ../../signal.c                           0x00000000   Number         0  defsig_rtred_inner.o ABSOLUTE
    ../../signal.c                           0x00000000   Number         0  defsig_fpe_inner.o ABSOLUTE
    ../../signal.c                           0x00000000   Number         0  defsig_abrt_inner.o ABSOLUTE
    ../../signal.s                           0x00000000   Number         0  defsig.o ABSOLUTE
    ../../stdlib.c                           0x00000000   Number         0  exit.o ABSOLUTE
    ..\CommonTables\arm_common_tables.c      0x00000000   Number         0  arm_common_tables.o ABSOLUTE
    ..\ComplexMathFunctions\arm_cmplx_mag_f32.c 0x00000000   Number         0  arm_cmplx_mag_f32.o ABSOLUTE
    ..\StatisticsFunctions\arm_max_f32.c     0x00000000   Number         0  arm_max_f32.o ABSOLUTE
    ..\TransformFunctions\arm_cfft_radix4_f32.c 0x00000000   Number         0  arm_cfft_radix4_f32.o ABSOLUTE
    ..\TransformFunctions\arm_cfft_radix4_init_f32.c 0x00000000   Number         0  arm_cfft_radix4_init_f32.o ABSOLUTE
    ..\\CommonTables\\arm_common_tables.c    0x00000000   Number         0  arm_common_tables.o ABSOLUTE
    ..\\ComplexMathFunctions\\arm_cmplx_mag_f32.c 0x00000000   Number         0  arm_cmplx_mag_f32.o ABSOLUTE
    ..\\StatisticsFunctions\\arm_max_f32.c   0x00000000   Number         0  arm_max_f32.o ABSOLUTE
    ..\\TransformFunctions\\arm_cfft_radix4_f32.c 0x00000000   Number         0  arm_cfft_radix4_f32.o ABSOLUTE
    ..\\TransformFunctions\\arm_cfft_radix4_init_f32.c 0x00000000   Number         0  arm_cfft_radix4_init_f32.o ABSOLUTE
    ..\\arm_fft_bin_data.c                   0x00000000   Number         0  arm_fft_bin_data.o ABSOLUTE
    ..\\arm_fft_bin_example_f32.c            0x00000000   Number         0  arm_fft_bin_example_f32.o ABSOLUTE
    ..\\system_ARMCM4.c                      0x00000000   Number         0  system_armcm4.o ABSOLUTE
    ..\arm_fft_bin_data.c                    0x00000000   Number         0  arm_fft_bin_data.o ABSOLUTE
    ..\arm_fft_bin_example_f32.c             0x00000000   Number         0  arm_fft_bin_example_f32.o ABSOLUTE
    ..\system_ARMCM4.c                       0x00000000   Number         0  system_armcm4.o ABSOLUTE
    dc.s                                     0x00000000   Number         0  dc.o ABSOLUTE
    startup_ARMCM4.s                         0x00000000   Number         0  startup_armcm4.o ABSOLUTE
    !!!main                                  0x00000044   Section        8  __main.o(!!!main)
    !!!scatter                               0x0000004c   Section       52  __scatter.o(!!!scatter)
    !!dczerorl2                              0x00000080   Section       90  __dczerorl2.o(!!dczerorl2)
    !!handler_zi                             0x000000dc   Section       28  __scatter_zi.o(!!handler_zi)
    .ARM.Collect$$libinit$$00000000          0x000000f8   Section        6  libinit.o(.ARM.Collect$$libinit$$00000000)
    .ARM.Collect$$libinit$$00000006          0x000000fe   Section        0  libinit2.o(.ARM.Collect$$libinit$$00000006)
    .ARM.Collect$$libinit$$00000008          0x000000fe   Section        0  libinit2.o(.ARM.Collect$$libinit$$00000008)
    .ARM.Collect$$libinit$$0000000A          0x000000fe   Section        0  libinit2.o(.ARM.Collect$$libinit$$0000000A)
    .ARM.Collect$$libinit$$0000000D          0x000000fe   Section        0  libinit2.o(.ARM.Collect$$libinit$$0000000D)
    .ARM.Collect$$libinit$$0000000F          0x000000fe   Section        0  libinit2.o(.ARM.Collect$$libinit$$0000000F)
    .ARM.Collect$$libinit$$00000011          0x000000fe   Section        0  libinit2.o(.ARM.Collect$$libinit$$00000011)
    .ARM.Collect$$libinit$$00000013          0x000000fe   Section        0  libinit2.o(.ARM.Collect$$libinit$$00000013)
    .ARM.Collect$$libinit$$00000015          0x000000fe   Section        0  libinit2.o(.ARM.Collect$$libinit$$00000015)
    .ARM.Collect$$libinit$$00000017          0x000000fe   Section        0  libinit2.o(.ARM.Collect$$libinit$$00000017)
    .ARM.Collect$$libinit$$00000019          0x000000fe   Section        0  libinit2.o(.ARM.Collect$$libinit$$00000019)
    .ARM.Collect$$libinit$$0000001B          0x000000fe   Section        0  libinit2.o(.ARM.Collect$$libinit$$0000001B)
    .ARM.Collect$$libinit$$0000001D          0x000000fe   Section        0  libinit2.o(.ARM.Collect$$libinit$$0000001D)
    .ARM.Collect$$libinit$$0000001F          0x000000fe   Section        0  libinit2.o(.ARM.Collect$$libinit$$0000001F)
    .ARM.Collect$$libinit$$00000021          0x000000fe   Section        0  libinit2.o(.ARM.Collect$$libinit$$00000021)
    .ARM.Collect$$libinit$$00000028          0x000000fe   Section        0  libinit2.o(.ARM.Collect$$libinit$$00000028)
    .ARM.Collect$$libinit$$0000002A          0x000000fe   Section        0  libinit2.o(.ARM.Collect$$libinit$$0000002A)
    .ARM.Collect$$libinit$$0000002C          0x000000fe   Section        0  libinit2.o(.ARM.Collect$$libinit$$0000002C)
    .ARM.Collect$$libinit$$0000002E          0x000000fe   Section        0  libinit2.o(.ARM.Collect$$libinit$$0000002E)
    .ARM.Collect$$libinit$$0000002F          0x000000fe   Section        2  libinit2.o(.ARM.Collect$$libinit$$0000002F)
    .ARM.Collect$$libshutdown$$00000000      0x00000100   Section        2  libshutdown.o(.ARM.Collect$$libshutdown$$00000000)
    .ARM.Collect$$libshutdown$$00000003      0x00000102   Section        0  libshutdown2.o(.ARM.Collect$$libshutdown$$00000003)
    .ARM.Collect$$libshutdown$$00000006      0x00000102   Section        0  libshutdown2.o(.ARM.Collect$$libshutdown$$00000006)
    .ARM.Collect$$libshutdown$$00000009      0x00000102   Section        0  libshutdown2.o(.ARM.Collect$$libshutdown$$00000009)
    .ARM.Collect$$libshutdown$$0000000B      0x00000102   Section        0  libshutdown2.o(.ARM.Collect$$libshutdown$$0000000B)
    .ARM.Collect$$libshutdown$$0000000E      0x00000102   Section        0  libshutdown2.o(.ARM.Collect$$libshutdown$$0000000E)
    .ARM.Collect$$libshutdown$$0000000F      0x00000102   Section        2  libshutdown2.o(.ARM.Collect$$libshutdown$$0000000F)
    .ARM.Collect$$rtentry$$00000000          0x00000104   Section        0  rtentry.o(.ARM.Collect$$rtentry$$00000000)
    .ARM.Collect$$rtentry$$00000002          0x00000104   Section        0  rtentry2.o(.ARM.Collect$$rtentry$$00000002)
    .ARM.Collect$$rtentry$$00000004          0x00000104   Section        6  rtentry4.o(.ARM.Collect$$rtentry$$00000004)
    .ARM.Collect$$rtentry$$00000009          0x0000010a   Section        0  rtentry2.o(.ARM.Collect$$rtentry$$00000009)
    .ARM.Collect$$rtentry$$0000000A          0x0000010a   Section        4  rtentry2.o(.ARM.Collect$$rtentry$$0000000A)
    .ARM.Collect$$rtentry$$0000000C          0x0000010e   Section        0  rtentry2.o(.ARM.Collect$$rtentry$$0000000C)
    .ARM.Collect$$rtentry$$0000000D          0x0000010e   Section        8  rtentry2.o(.ARM.Collect$$rtentry$$0000000D)
    .ARM.Collect$$rtexit$$00000000           0x00000116   Section        2  rtexit.o(.ARM.Collect$$rtexit$$00000000)
    .ARM.Collect$$rtexit$$00000002           0x00000118   Section        0  rtexit2.o(.ARM.Collect$$rtexit$$00000002)
    .ARM.Collect$$rtexit$$00000003           0x00000118   Section        4  rtexit2.o(.ARM.Collect$$rtexit$$00000003)
    .ARM.Collect$$rtexit$$00000004           0x0000011c   Section        6  rtexit2.o(.ARM.Collect$$rtexit$$00000004)
    .text                                    0x00000124   Section        0  arm_fft_bin_example_f32.o(.text)
    .text                                    0x00000178   Section        0  system_armcm4.o(.text)
    .text                                    0x000001a0   Section       60  startup_armcm4.o(.text)
    $v0                                      0x000001a0   Number         0  startup_armcm4.o(.text)
    .text                                    0x000001dc   Section        0  arm_cmplx_mag_f32.o(.text)
    .text                                    0x000002d4   Section        0  arm_cfft_radix4_f32.o(.text)
    .text                                    0x00000a64   Section        0  arm_cfft_radix4_init_f32.o(.text)
    .text                                    0x00000afc   Section        0  arm_max_f32.o(.text)
    .text                                    0x00000b74   Section        0  heapauxi.o(.text)
    .text                                    0x00000b7a   Section       74  sys_stackheap_outer.o(.text)
    .text                                    0x00000bc4   Section        0  exit.o(.text)
    .text                                    0x00000bd0   Section        8  libspace.o(.text)
    .text                                    0x00000bd8   Section        0  sys_exit.o(.text)
    .text                                    0x00000be4   Section        2  use_no_semi.o(.text)
    x$fpl$fpinit                             0x00000be6   Section       10  fpinit.o(x$fpl$fpinit)
    $v0                                      0x00000be6   Number         0  fpinit.o(x$fpl$fpinit)
    .constdata                               0x00000bf0   Section     8192  arm_cfft_radix4_init_f32.o(.constdata)
    twiddleCoef                              0x00000bf0   Data        8192  arm_cfft_radix4_init_f32.o(.constdata)
    .constdata                               0x00002bf0   Section      512  arm_common_tables.o(.constdata)
    .data                                    0x20000000   Section     8192  arm_fft_bin_data.o(.data)
    .data                                    0x20002000   Section       20  arm_fft_bin_example_f32.o(.data)
    .data                                    0x20002014   Section        4  system_armcm4.o(.data)
    .bss                                     0x20002018   Section     4096  arm_fft_bin_example_f32.o(.bss)
    testOutput                               0x20002018   Data        4096  arm_fft_bin_example_f32.o(.bss)
    .bss                                     0x20003018   Section       96  libspace.o(.bss)
    HEAP                                     0x20003078   Section        0  startup_armcm4.o(HEAP)
    STACK                                    0x20003078   Section     1024  startup_armcm4.o(STACK)
    Heap_Mem                                 0x20003078   Data           0  startup_armcm4.o(HEAP)
    Stack_Mem                                0x20003078   Data        1024  startup_armcm4.o(STACK)
    __initial_sp                             0x20003478   Data           0  startup_armcm4.o(STACK)

    Global Symbols

    Symbol Name                              Value     Ov Type        Size  Object(Section)

    BuildAttributes$$THM_ISAv4$E$P$D$K$B$S$7EM$VFPi3$EXTD16$VFPS$VFMA$PE$A:L22UL41UL21$X:L11$S22US41US21$IEEE1$IW$USESV6$~STKCKD$USESV7$~SHL$OTIME$ROPI$EBA8$UX$STANDARDLIB$REQ8$PRES8$EABIv2 0x00000000   Number         0  anon$$obj.o ABSOLUTE
    __ARM_use_no_argv                        0x00000000   Number         0  arm_fft_bin_example_f32.o ABSOLUTE
    __Vectors                                0x00000000   Data           4  startup_armcm4.o(RESET)
    __ARM_exceptions_init                     - Undefined Weak Reference
    __alloca_initialize                       - Undefined Weak Reference
    __cpp_initialize__aeabi_                  - Undefined Weak Reference
    __cxa_finalize                            - Undefined Weak Reference
    __rt_locale                               - Undefined Weak Reference
    __sigvec_lookup                           - Undefined Weak Reference
    _atexit_init                              - Undefined Weak Reference
    _call_atexit_fns                          - Undefined Weak Reference
    _clock_init                               - Undefined Weak Reference
    _fp_trap_init                             - Undefined Weak Reference
    _fp_trap_shutdown                         - Undefined Weak Reference
    _get_lc_collate                           - Undefined Weak Reference
    _get_lc_ctype                             - Undefined Weak Reference
    _get_lc_monetary                          - Undefined Weak Reference
    _get_lc_numeric                           - Undefined Weak Reference
    _get_lc_time                              - Undefined Weak Reference
    _getenv_init                              - Undefined Weak Reference
    _handle_redirection                       - Undefined Weak Reference
    _init_alloc                               - Undefined Weak Reference
    _init_user_alloc                          - Undefined Weak Reference
    _initio                                   - Undefined Weak Reference
    _rand_init                                - Undefined Weak Reference
    _signal_finish                            - Undefined Weak Reference
    _signal_init                              - Undefined Weak Reference
    _terminate_alloc                          - Undefined Weak Reference
    _terminate_user_alloc                     - Undefined Weak Reference
    _terminateio                              - Undefined Weak Reference
    __Vectors_End                            0x00000044   Data           0  startup_armcm4.o(RESET)
    __Vectors_Size                           0x00000044   Number         0  startup_armcm4.o ABSOLUTE
    __main                                   0x00000045   Thumb Code     8  __main.o(!!!main)
    __scatterload                            0x0000004d   Thumb Code     0  __scatter.o(!!!scatter)
    __scatterload_rt2                        0x0000004d   Thumb Code    44  __scatter.o(!!!scatter)
    __scatterload_rt2_thumb_only             0x0000004d   Thumb Code     0  __scatter.o(!!!scatter)
    __scatterload_null                       0x0000005b   Thumb Code     0  __scatter.o(!!!scatter)
    __decompress                             0x00000081   Thumb Code    90  __dczerorl2.o(!!dczerorl2)
    __decompress1                            0x00000081   Thumb Code     0  __dczerorl2.o(!!dczerorl2)
    __scatterload_zeroinit                   0x000000dd   Thumb Code    28  __scatter_zi.o(!!handler_zi)
    __rt_lib_init                            0x000000f9   Thumb Code     0  libinit.o(.ARM.Collect$$libinit$$00000000)
    __rt_lib_init_alloca_1                   0x000000ff   Thumb Code     0  libinit2.o(.ARM.Collect$$libinit$$0000002A)
    __rt_lib_init_argv_1                     0x000000ff   Thumb Code     0  libinit2.o(.ARM.Collect$$libinit$$00000028)
    __rt_lib_init_atexit_1                   0x000000ff   Thumb Code     0  libinit2.o(.ARM.Collect$$libinit$$00000017)
    __rt_lib_init_clock_1                    0x000000ff   Thumb Code     0  libinit2.o(.ARM.Collect$$libinit$$0000001D)
    __rt_lib_init_cpp_1                      0x000000ff   Thumb Code     0  libinit2.o(.ARM.Collect$$libinit$$0000002E)
    __rt_lib_init_exceptions_1               0x000000ff   Thumb Code     0  libinit2.o(.ARM.Collect$$libinit$$0000002C)
    __rt_lib_init_fp_trap_1                  0x000000ff   Thumb Code     0  libinit2.o(.ARM.Collect$$libinit$$0000001B)
    __rt_lib_init_getenv_1                   0x000000ff   Thumb Code     0  libinit2.o(.ARM.Collect$$libinit$$0000001F)
    __rt_lib_init_heap_1                     0x000000ff   Thumb Code     0  libinit2.o(.ARM.Collect$$libinit$$00000006)
    __rt_lib_init_lc_collate_1               0x000000ff   Thumb Code     0  libinit2.o(.ARM.Collect$$libinit$$0000000D)
    __rt_lib_init_lc_ctype_1                 0x000000ff   Thumb Code     0  libinit2.o(.ARM.Collect$$libinit$$0000000F)
    __rt_lib_init_lc_monetary_1              0x000000ff   Thumb Code     0  libinit2.o(.ARM.Collect$$libinit$$00000011)
    __rt_lib_init_lc_numeric_1               0x000000ff   Thumb Code     0  libinit2.o(.ARM.Collect$$libinit$$00000013)
    __rt_lib_init_lc_time_1                  0x000000ff   Thumb Code     0  libinit2.o(.ARM.Collect$$libinit$$00000015)
    __rt_lib_init_rand_1                     0x000000ff   Thumb Code     0  libinit2.o(.ARM.Collect$$libinit$$0000000A)
    __rt_lib_init_return                     0x000000ff   Thumb Code     0  libinit2.o(.ARM.Collect$$libinit$$0000002F)
    __rt_lib_init_signal_1                   0x000000ff   Thumb Code     0  libinit2.o(.ARM.Collect$$libinit$$00000019)
    __rt_lib_init_stdio_1                    0x000000ff   Thumb Code     0  libinit2.o(.ARM.Collect$$libinit$$00000021)
    __rt_lib_init_user_alloc_1               0x000000ff   Thumb Code     0  libinit2.o(.ARM.Collect$$libinit$$00000008)
    __rt_lib_shutdown                        0x00000101   Thumb Code     0  libshutdown.o(.ARM.Collect$$libshutdown$$00000000)
    __rt_lib_shutdown_fp_trap_1              0x00000103   Thumb Code     0  libshutdown2.o(.ARM.Collect$$libshutdown$$00000006)
    __rt_lib_shutdown_heap_1                 0x00000103   Thumb Code     0  libshutdown2.o(.ARM.Collect$$libshutdown$$0000000E)
    __rt_lib_shutdown_return                 0x00000103   Thumb Code     0  libshutdown2.o(.ARM.Collect$$libshutdown$$0000000F)
    __rt_lib_shutdown_signal_1               0x00000103   Thumb Code     0  libshutdown2.o(.ARM.Collect$$libshutdown$$00000009)
    __rt_lib_shutdown_stdio_1                0x00000103   Thumb Code     0  libshutdown2.o(.ARM.Collect$$libshutdown$$00000003)
    __rt_lib_shutdown_user_alloc_1           0x00000103   Thumb Code     0  libshutdown2.o(.ARM.Collect$$libshutdown$$0000000B)
    __rt_entry                               0x00000105   Thumb Code     0  rtentry.o(.ARM.Collect$$rtentry$$00000000)
    __rt_entry_presh_1                       0x00000105   Thumb Code     0  rtentry2.o(.ARM.Collect$$rtentry$$00000002)
    __rt_entry_sh                            0x00000105   Thumb Code     0  rtentry4.o(.ARM.Collect$$rtentry$$00000004)
    __rt_entry_li                            0x0000010b   Thumb Code     0  rtentry2.o(.ARM.Collect$$rtentry$$0000000A)
    __rt_entry_postsh_1                      0x0000010b   Thumb Code     0  rtentry2.o(.ARM.Collect$$rtentry$$00000009)
    __rt_entry_main                          0x0000010f   Thumb Code     0  rtentry2.o(.ARM.Collect$$rtentry$$0000000D)
    __rt_entry_postli_1                      0x0000010f   Thumb Code     0  rtentry2.o(.ARM.Collect$$rtentry$$0000000C)
    __rt_exit                                0x00000117   Thumb Code     0  rtexit.o(.ARM.Collect$$rtexit$$00000000)
    __rt_exit_ls                             0x00000119   Thumb Code     0  rtexit2.o(.ARM.Collect$$rtexit$$00000003)
    __rt_exit_prels_1                        0x00000119   Thumb Code     0  rtexit2.o(.ARM.Collect$$rtexit$$00000002)
    __rt_exit_exit                           0x0000011d   Thumb Code     0  rtexit2.o(.ARM.Collect$$rtexit$$00000004)
    main                                     0x00000125   Thumb Code    72  arm_fft_bin_example_f32.o(.text)
    SystemCoreClockUpdate                    0x00000179   Thumb Code     8  system_armcm4.o(.text)
    SystemInit                               0x00000181   Thumb Code    18  system_armcm4.o(.text)
    Reset_Handler                            0x000001a1   Thumb Code     8  startup_armcm4.o(.text)
    NMI_Handler                              0x000001a9   Thumb Code     2  startup_armcm4.o(.text)
    HardFault_Handler                        0x000001ab   Thumb Code     2  startup_armcm4.o(.text)
    MemManage_Handler                        0x000001ad   Thumb Code     2  startup_armcm4.o(.text)
    BusFault_Handler                         0x000001af   Thumb Code     2  startup_armcm4.o(.text)
    UsageFault_Handler                       0x000001b1   Thumb Code     2  startup_armcm4.o(.text)
    SVC_Handler                              0x000001b3   Thumb Code     2  startup_armcm4.o(.text)
    DebugMon_Handler                         0x000001b5   Thumb Code     2  startup_armcm4.o(.text)
    PendSV_Handler                           0x000001b7   Thumb Code     2  startup_armcm4.o(.text)
    SysTick_Handler                          0x000001b9   Thumb Code     2  startup_armcm4.o(.text)
    DEF_IRQHandler                           0x000001bb   Thumb Code     0  startup_armcm4.o(.text)
    __user_initial_stackheap                 0x000001bd   Thumb Code     0  startup_armcm4.o(.text)
    arm_cmplx_mag_f32                        0x000001dd   Thumb Code   244  arm_cmplx_mag_f32.o(.text)
    arm_bitreversal_f32                      0x000002d5   Thumb Code   170  arm_cfft_radix4_f32.o(.text)
    arm_radix4_butterfly_f32                 0x0000037f   Thumb Code   838  arm_cfft_radix4_f32.o(.text)
    arm_radix4_butterfly_inverse_f32         0x000006c5   Thumb Code   868  arm_cfft_radix4_f32.o(.text)
    arm_cfft_radix4_f32                      0x00000a29   Thumb Code    58  arm_cfft_radix4_f32.o(.text)
    arm_cfft_radix4_init_f32                 0x00000a65   Thumb Code   116  arm_cfft_radix4_init_f32.o(.text)
    arm_max_f32                              0x00000afd   Thumb Code   120  arm_max_f32.o(.text)
    __use_two_region_memory                  0x00000b75   Thumb Code     2  heapauxi.o(.text)
    __rt_heap_escrow$2region                 0x00000b77   Thumb Code     2  heapauxi.o(.text)
    __rt_heap_expand$2region                 0x00000b79   Thumb Code     2  heapauxi.o(.text)
    __user_setup_stackheap                   0x00000b7b   Thumb Code    74  sys_stackheap_outer.o(.text)
    exit                                     0x00000bc5   Thumb Code    12  exit.o(.text)
    __user_libspace                          0x00000bd1   Thumb Code     8  libspace.o(.text)
    __user_perproc_libspace                  0x00000bd1   Thumb Code     0  libspace.o(.text)
    __user_perthread_libspace                0x00000bd1   Thumb Code     0  libspace.o(.text)
    _sys_exit                                0x00000bd9   Thumb Code     8  sys_exit.o(.text)
    __I$use$semihosting                      0x00000be5   Thumb Code     0  use_no_semi.o(.text)
    __use_no_semihosting_swi                 0x00000be5   Thumb Code     2  use_no_semi.o(.text)
    _fp_init                                 0x00000be7   Thumb Code    10  fpinit.o(x$fpl$fpinit)
    __fplib_config_fpu_vfp                   0x00000bef   Thumb Code     0  fpinit.o(x$fpl$fpinit)
    __fplib_config_pureend_doubles           0x00000bef   Thumb Code     0  fpinit.o(x$fpl$fpinit)
    armBitRevTable                           0x00002bf0   Data         512  arm_common_tables.o(.constdata)
    Region$$Table$$Base                      0x00002df0   Number         0  anon$$obj.o(Region$$Table)
    Region$$Table$$Limit                     0x00002e10   Number         0  anon$$obj.o(Region$$Table)
    testInput_f32_10khz                      0x20000000   Data        8192  arm_fft_bin_data.o(.data)
    fftSize                                  0x20002000   Data           4  arm_fft_bin_example_f32.o(.data)
    ifftFlag                                 0x20002004   Data           4  arm_fft_bin_example_f32.o(.data)
    doBitReverse                             0x20002008   Data           4  arm_fft_bin_example_f32.o(.data)
    refIndex                                 0x2000200c   Data           4  arm_fft_bin_example_f32.o(.data)
    testIndex                                0x20002010   Data           4  arm_fft_bin_example_f32.o(.data)
    SystemCoreClock                          0x20002014   Data           4  system_armcm4.o(.data)
    __libspace_start                         0x20003018   Data          96  libspace.o(.bss)
    __temporary_stack_top$libspace           0x20003078   Data           0  libspace.o(.bss)



==============================================================================

Memory Map of the image

  Image Entry point : 0x000001a1

  Load Region LR_1 (Base: 0x00000000, Size: 0x00004e28, Max: 0xffffffff, ABSOLUTE, COMPRESSED[0x000041f0])

    Execution Region ER_RO (Base: 0x00000000, Size: 0x00002e10, Max: 0xffffffff, ABSOLUTE)

    Base Addr    Size         Type   Attr      Idx    E Section Name        Object

    0x00000000   0x00000044   Data   RO           94    RESET               startup_armcm4.o
    0x00000044   0x00000008   Code   RO          195  * !!!main             c_w.l(__main.o)
    0x0000004c   0x00000034   Code   RO          354    !!!scatter          c_w.l(__scatter.o)
    0x00000080   0x0000005a   Code   RO          352    !!dczerorl2         c_w.l(__dczerorl2.o)
    0x000000da   0x00000002   PAD
    0x000000dc   0x0000001c   Code   RO          356    !!handler_zi        c_w.l(__scatter_zi.o)
    0x000000f8   0x00000006   Code   RO          227    .ARM.Collect$$libinit$$00000000  c_w.l(libinit.o)
    0x000000fe   0x00000000   Code   RO          235    .ARM.Collect$$libinit$$00000006  c_w.l(libinit2.o)
    0x000000fe   0x00000000   Code   RO          237    .ARM.Collect$$libinit$$00000008  c_w.l(libinit2.o)
    0x000000fe   0x00000000   Code   RO          239    .ARM.Collect$$libinit$$0000000A  c_w.l(libinit2.o)
    0x000000fe   0x00000000   Code   RO          242    .ARM.Collect$$libinit$$0000000D  c_w.l(libinit2.o)
    0x000000fe   0x00000000   Code   RO          244    .ARM.Collect$$libinit$$0000000F  c_w.l(libinit2.o)
    0x000000fe   0x00000000   Code   RO          246    .ARM.Collect$$libinit$$00000011  c_w.l(libinit2.o)
    0x000000fe   0x00000000   Code   RO          248    .ARM.Collect$$libinit$$00000013  c_w.l(libinit2.o)
    0x000000fe   0x00000000   Code   RO          250    .ARM.Collect$$libinit$$00000015  c_w.l(libinit2.o)
    0x000000fe   0x00000000   Code   RO          252    .ARM.Collect$$libinit$$00000017  c_w.l(libinit2.o)
    0x000000fe   0x00000000   Code   RO          254    .ARM.Collect$$libinit$$00000019  c_w.l(libinit2.o)
    0x000000fe   0x00000000   Code   RO          256    .ARM.Collect$$libinit$$0000001B  c_w.l(libinit2.o)
    0x000000fe   0x00000000   Code   RO          258    .ARM.Collect$$libinit$$0000001D  c_w.l(libinit2.o)
    0x000000fe   0x00000000   Code   RO          260    .ARM.Collect$$libinit$$0000001F  c_w.l(libinit2.o)
    0x000000fe   0x00000000   Code   RO          262    .ARM.Collect$$libinit$$00000021  c_w.l(libinit2.o)
    0x000000fe   0x00000000   Code   RO          266    .ARM.Collect$$libinit$$00000028  c_w.l(libinit2.o)
    0x000000fe   0x00000000   Code   RO          268    .ARM.Collect$$libinit$$0000002A  c_w.l(libinit2.o)
    0x000000fe   0x00000000   Code   RO          270    .ARM.Collect$$libinit$$0000002C  c_w.l(libinit2.o)
    0x000000fe   0x00000000   Code   RO          272    .ARM.Collect$$libinit$$0000002E  c_w.l(libinit2.o)
    0x000000fe   0x00000002   Code   RO          273    .ARM.Collect$$libinit$$0000002F  c_w.l(libinit2.o)
    0x00000100   0x00000002   Code   RO          294    .ARM.Collect$$libshutdown$$00000000  c_w.l(libshutdown.o)
    0x00000102   0x00000000   Code   RO          307    .ARM.Collect$$libshutdown$$00000003  c_w.l(libshutdown2.o)
    0x00000102   0x00000000   Code   RO          310    .ARM.Collect$$libshutdown$$00000006  c_w.l(libshutdown2.o)
    0x00000102   0x00000000   Code   RO          313    .ARM.Collect$$libshutdown$$00000009  c_w.l(libshutdown2.o)
    0x00000102   0x00000000   Code   RO          315    .ARM.Collect$$libshutdown$$0000000B  c_w.l(libshutdown2.o)
    0x00000102   0x00000000   Code   RO          318    .ARM.Collect$$libshutdown$$0000000E  c_w.l(libshutdown2.o)
    0x00000102   0x00000002   Code   RO          319    .ARM.Collect$$libshutdown$$0000000F  c_w.l(libshutdown2.o)
    0x00000104   0x00000000   Code   RO          197    .ARM.Collect$$rtentry$$00000000  c_w.l(rtentry.o)
    0x00000104   0x00000000   Code   RO          200    .ARM.Collect$$rtentry$$00000002  c_w.l(rtentry2.o)
    0x00000104   0x00000006   Code   RO          215    .ARM.Collect$$rtentry$$00000004  c_w.l(rtentry4.o)
    0x0000010a   0x00000000   Code   RO          202    .ARM.Collect$$rtentry$$00000009  c_w.l(rtentry2.o)
    0x0000010a   0x00000004   Code   RO          203    .ARM.Collect$$rtentry$$0000000A  c_w.l(rtentry2.o)
    0x0000010e   0x00000000   Code   RO          205    .ARM.Collect$$rtentry$$0000000C  c_w.l(rtentry2.o)
    0x0000010e   0x00000008   Code   RO          206    .ARM.Collect$$rtentry$$0000000D  c_w.l(rtentry2.o)
    0x00000116   0x00000002   Code   RO          231    .ARM.Collect$$rtexit$$00000000  c_w.l(rtexit.o)
    0x00000118   0x00000000   Code   RO          277    .ARM.Collect$$rtexit$$00000002  c_w.l(rtexit2.o)
    0x00000118   0x00000004   Code   RO          278    .ARM.Collect$$rtexit$$00000003  c_w.l(rtexit2.o)
    0x0000011c   0x00000006   Code   RO          279    .ARM.Collect$$rtexit$$00000004  c_w.l(rtexit2.o)
    0x00000122   0x00000002   PAD
    0x00000124   0x00000054   Code   RO           43    .text               arm_fft_bin_example_f32.o
    0x00000178   0x00000028   Code   RO           64    .text               system_armcm4.o
    0x000001a0   0x0000003c   Code   RO           95  * .text               startup_armcm4.o
    0x000001dc   0x000000f8   Code   RO          100    .text               arm_cortexM4lf_math.lib(arm_cmplx_mag_f32.o)
    0x000002d4   0x0000078e   Code   RO          122    .text               arm_cortexM4lf_math.lib(arm_cfft_radix4_f32.o)
    0x00000a62   0x00000002   PAD
    0x00000a64   0x00000098   Code   RO          139    .text               arm_cortexM4lf_math.lib(arm_cfft_radix4_init_f32.o)
    0x00000afc   0x00000078   Code   RO          161    .text               arm_cortexM4lf_math.lib(arm_max_f32.o)
    0x00000b74   0x00000006   Code   RO          193    .text               c_w.l(heapauxi.o)
    0x00000b7a   0x0000004a   Code   RO          217    .text               c_w.l(sys_stackheap_outer.o)
    0x00000bc4   0x0000000c   Code   RO          219    .text               c_w.l(exit.o)
    0x00000bd0   0x00000008   Code   RO          228    .text               c_w.l(libspace.o)
    0x00000bd8   0x0000000c   Code   RO          286    .text               c_w.l(sys_exit.o)
    0x00000be4   0x00000002   Code   RO          297    .text               c_w.l(use_no_semi.o)
    0x00000be6   0x0000000a   Code   RO          274    x$fpl$fpinit        fz_wm.l(fpinit.o)
    0x00000bf0   0x00002000   Data   RO          140    .constdata          arm_cortexM4lf_math.lib(arm_cfft_radix4_init_f32.o)
    0x00002bf0   0x00000200   Data   RO          177    .constdata          arm_cortexM4lf_math.lib(arm_common_tables.o)
    0x00002df0   0x00000020   Data   RO          350    Region$$Table       anon$$obj.o


    Execution Region ER_RW (Base: 0x20000000, Size: 0x00002018, Max: 0xffffffff, ABSOLUTE, COMPRESSED[0x000013e0])

    Base Addr    Size         Type   Attr      Idx    E Section Name        Object

    0x20000000   0x00002000   Data   RW            2    .data               arm_fft_bin_data.o
    0x20002000   0x00000014   Data   RW           45    .data               arm_fft_bin_example_f32.o
    0x20002014   0x00000004   Data   RW           65    .data               system_armcm4.o


    Execution Region ER_ZI (Base: 0x20002018, Size: 0x00001460, Max: 0xffffffff, ABSOLUTE)

    Base Addr    Size         Type   Attr      Idx    E Section Name        Object

    0x20002018   0x00001000   Zero   RW           44    .bss                arm_fft_bin_example_f32.o
    0x20003018   0x00000060   Zero   RW          229    .bss                c_w.l(libspace.o)
    0x20003078   0x00000000   Zero   RW           93    HEAP                startup_armcm4.o
    0x20003078   0x00000400   Zero   RW           92    STACK               startup_armcm4.o


==============================================================================

Image component sizes


      Code (inc. data)   RO Data    RW Data    ZI Data      Debug   Object Name

         0          0          0       8192          0      15774   arm_fft_bin_data.o
        84         12          0         20       4096       1468   arm_fft_bin_example_f32.o
        60         22         68          0       1024        836   startup_armcm4.o
        40         14          0          4          0        865   system_armcm4.o

    ----------------------------------------------------------------------
       184         48        100       8216       5120      18943   Object Totals
         0          0         32          0          0          0   (incl. Generated)
         0          0          0          0          0          3   (incl. Padding)

    ----------------------------------------------------------------------

      Code (inc. data)   RO Data    RW Data    ZI Data      Debug   Library Member Name

      1934          0          0          0          0       4582   arm_cfft_radix4_f32.o
       152         36       8192          0          0       1523   arm_cfft_radix4_init_f32.o
       248          4          0          0          0      12264   arm_cmplx_mag_f32.o
         0          0        512          0          0        707   arm_common_tables.o
       120          0          0          0          0       1422   arm_max_f32.o
        90          0          0          0          0          0   __dczerorl2.o
         8          0          0          0          0         68   __main.o
        52          8          0          0          0          0   __scatter.o
        28          0          0          0          0          0   __scatter_zi.o
        12          0          0          0          0         68   exit.o
         6          0          0          0          0        152   heapauxi.o
         6          0          0          0          0          0   libinit.o
         2          0          0          0          0          0   libinit2.o
         2          0          0          0          0          0   libshutdown.o
         2          0          0          0          0          0   libshutdown2.o
         8          4          0          0         96         68   libspace.o
         0          0          0          0          0          0   rtentry.o
        12          0          0          0          0          0   rtentry2.o
         6          0          0          0          0          0   rtentry4.o
         2          0          0          0          0          0   rtexit.o
        10          0          0          0          0          0   rtexit2.o
        12          4          0          0          0         68   sys_exit.o
        74          0          0          0          0         80   sys_stackheap_outer.o
         2          0          0          0          0         68   use_no_semi.o
        10          0          0          0          0        116   fpinit.o

    ----------------------------------------------------------------------
      2804         56       8704          0         96      21186   Library Totals
         6          0          0          0          0          0   (incl. Padding)

    ----------------------------------------------------------------------

      Code (inc. data)   RO Data    RW Data    ZI Data      Debug   Library Name

      2454         40       8704          0          0      20498   arm_cortexM4lf_math.lib
       334         16          0          0         96        572   c_w.l
        10          0          0          0          0        116   fz_wm.l

    ----------------------------------------------------------------------
      2804         56       8704          0         96      21186   Library Totals

    ----------------------------------------------------------------------

==============================================================================


      Code (inc. data)   RO Data    RW Data    ZI Data      Debug   

      2988        104       8804       8216       5216      39472   Grand Totals
      2988        104       8804       5088       5216      39472   ELF Image Totals (compressed)
      2988        104       8804       5088          0          0   ROM Totals

==============================================================================

    Total RO  Size (Code + RO Data)                11792 (  11.52kB)
    Total RW  Size (RW Data + ZI Data)             13432 (  13.12kB)
    Total ROM Size (Code + RO Data + RW Data)      16880 (  16.48kB)

==============================================================================

